{
    "_format": "hh-sol-artifact-1",
    "contractName": "OrganicProductData",
    "sourceName": "contracts/OrganicProductData.sol",
    "abi": [
        {
            "anonymous": false,
            "inputs": [
                {
                    "indexed": true,
                    "internalType": "address",
                    "name": "consumer",
                    "type": "address"
                },
                {
                    "indexed": false,
                    "internalType": "string",
                    "name": "name",
                    "type": "string"
                }
            ],
            "name": "ConsumerRegistered",
            "type": "event"
        },
        {
            "anonymous": false,
            "inputs": [
                {
                    "indexed": true,
                    "internalType": "address",
                    "name": "farmer",
                    "type": "address"
                },
                {
                    "indexed": false,
                    "internalType": "string",
                    "name": "name",
                    "type": "string"
                },
                {
                    "indexed": false,
                    "internalType": "string",
                    "name": "faddress",
                    "type": "string"
                }
            ],
            "name": "FarmerRegistered",
            "type": "event"
        },
        {
            "anonymous": false,
            "inputs": [
                {
                    "indexed": true,
                    "internalType": "address",
                    "name": "manufacturer",
                    "type": "address"
                },
                {
                    "indexed": false,
                    "internalType": "string",
                    "name": "name",
                    "type": "string"
                },
                {
                    "indexed": false,
                    "internalType": "string",
                    "name": "industry",
                    "type": "string"
                }
            ],
            "name": "ManufacturerRegistered",
            "type": "event"
        },
        {
            "anonymous": false,
            "inputs": [
                {
                    "indexed": true,
                    "internalType": "address",
                    "name": "manufacturer",
                    "type": "address"
                },
                {
                    "indexed": false,
                    "internalType": "uint256",
                    "name": "id",
                    "type": "uint256"
                }
            ],
            "name": "ProductAdded",
            "type": "event"
        },
        {
            "anonymous": false,
            "inputs": [
                {
                    "indexed": true,
                    "internalType": "address",
                    "name": "farmer",
                    "type": "address"
                },
                {
                    "indexed": false,
                    "internalType": "uint256",
                    "name": "id",
                    "type": "uint256"
                },
                {
                    "indexed": false,
                    "internalType": "string",
                    "name": "name",
                    "type": "string"
                },
                {
                    "indexed": false,
                    "internalType": "string",
                    "name": "location",
                    "type": "string"
                },
                {
                    "indexed": false,
                    "internalType": "string",
                    "name": "cultivationPratices",
                    "type": "string"
                },
                {
                    "indexed": false,
                    "internalType": "string",
                    "name": "pesticides",
                    "type": "string"
                },
                {
                    "indexed": false,
                    "internalType": "string",
                    "name": "producedDate",
                    "type": "string"
                },
                {
                    "indexed": false,
                    "internalType": "uint256",
                    "name": "shelfLife",
                    "type": "uint256"
                },
                {
                    "indexed": false,
                    "internalType": "uint256",
                    "name": "price",
                    "type": "uint256"
                },
                {
                    "indexed": false,
                    "internalType": "uint256",
                    "name": "quantity",
                    "type": "uint256"
                },
                {
                    "indexed": false,
                    "internalType": "string",
                    "name": "imageURL",
                    "type": "string"
                }
            ],
            "name": "RawMaterialAdded",
            "type": "event"
        },
        {
            "inputs": [
                {
                    "internalType": "string",
                    "name": "_name",
                    "type": "string"
                },
                {
                    "internalType": "string",
                    "name": "_location",
                    "type": "string"
                },
                {
                    "internalType": "string",
                    "name": "_cultivationPratices",
                    "type": "string"
                },
                {
                    "internalType": "string",
                    "name": "_pesticides",
                    "type": "string"
                },
                {
                    "internalType": "string",
                    "name": "_producedDate",
                    "type": "string"
                },
                {
                    "internalType": "uint256",
                    "name": "_shelfLife",
                    "type": "uint256"
                },
                {
                    "internalType": "uint256",
                    "name": "_price",
                    "type": "uint256"
                },
                {
                    "internalType": "uint256",
                    "name": "_quantity",
                    "type": "uint256"
                },
                {
                    "internalType": "string",
                    "name": "_URL",
                    "type": "string"
                }
            ],
            "name": "addRawMaterials",
            "outputs": [],
            "stateMutability": "nonpayable",
            "type": "function"
        },
        {
            "inputs": [],
            "name": "admin",
            "outputs": [
                {
                    "internalType": "address",
                    "name": "",
                    "type": "address"
                }
            ],
            "stateMutability": "view",
            "type": "function"
        },
        {
            "inputs": [
                {
                    "internalType": "uint256",
                    "name": "",
                    "type": "uint256"
                }
            ],
            "name": "allProducts",
            "outputs": [
                {
                    "internalType": "uint256",
                    "name": "id",
                    "type": "uint256"
                },
                {
                    "internalType": "string",
                    "name": "name",
                    "type": "string"
                },
                {
                    "internalType": "address payable",
                    "name": "manufacturerAddress",
                    "type": "address"
                },
                {
                    "internalType": "string",
                    "name": "manufacturedDate",
                    "type": "string"
                },
                {
                    "internalType": "string",
                    "name": "expireDate",
                    "type": "string"
                },
                {
                    "internalType": "string",
                    "name": "processingMethod",
                    "type": "string"
                },
                {
                    "internalType": "string",
                    "name": "packagingMaterial",
                    "type": "string"
                },
                {
                    "internalType": "uint256",
                    "name": "price",
                    "type": "uint256"
                },
                {
                    "internalType": "uint256",
                    "name": "quantity",
                    "type": "uint256"
                },
                {
                    "internalType": "string",
                    "name": "imageURL",
                    "type": "string"
                }
            ],
            "stateMutability": "view",
            "type": "function"
        },
        {
            "inputs": [
                {
                    "internalType": "uint256",
                    "name": "",
                    "type": "uint256"
                }
            ],
            "name": "allRawMaterials",
            "outputs": [
                {
                    "internalType": "uint256",
                    "name": "id",
                    "type": "uint256"
                },
                {
                    "internalType": "string",
                    "name": "name",
                    "type": "string"
                },
                {
                    "internalType": "address payable",
                    "name": "farmerAddress",
                    "type": "address"
                },
                {
                    "internalType": "string",
                    "name": "location",
                    "type": "string"
                },
                {
                    "internalType": "string",
                    "name": "cultivationPratices",
                    "type": "string"
                },
                {
                    "internalType": "string",
                    "name": "pesticides",
                    "type": "string"
                },
                {
                    "internalType": "string",
                    "name": "producedDate",
                    "type": "string"
                },
                {
                    "internalType": "uint256",
                    "name": "shelfLife",
                    "type": "uint256"
                },
                {
                    "internalType": "uint256",
                    "name": "price",
                    "type": "uint256"
                },
                {
                    "internalType": "uint256",
                    "name": "quantity",
                    "type": "uint256"
                },
                {
                    "internalType": "string",
                    "name": "imageURL",
                    "type": "string"
                }
            ],
            "stateMutability": "view",
            "type": "function"
        },
        {
            "inputs": [
                {
                    "internalType": "string",
                    "name": "a",
                    "type": "string"
                },
                {
                    "internalType": "string",
                    "name": "b",
                    "type": "string"
                }
            ],
            "name": "compareStrings",
            "outputs": [
                {
                    "internalType": "bool",
                    "name": "",
                    "type": "bool"
                }
            ],
            "stateMutability": "pure",
            "type": "function"
        },
        {
            "inputs": [
                {
                    "internalType": "address",
                    "name": "",
                    "type": "address"
                }
            ],
            "name": "consumers",
            "outputs": [
                {
                    "internalType": "string",
                    "name": "name",
                    "type": "string"
                },
                {
                    "internalType": "bool",
                    "name": "isRegistered",
                    "type": "bool"
                }
            ],
            "stateMutability": "view",
            "type": "function"
        },
        {
            "inputs": [
                {
                    "internalType": "address",
                    "name": "",
                    "type": "address"
                },
                {
                    "internalType": "uint256",
                    "name": "",
                    "type": "uint256"
                }
            ],
            "name": "farmerRawMaterials",
            "outputs": [
                {
                    "internalType": "uint256",
                    "name": "id",
                    "type": "uint256"
                },
                {
                    "internalType": "string",
                    "name": "name",
                    "type": "string"
                },
                {
                    "internalType": "address payable",
                    "name": "farmerAddress",
                    "type": "address"
                },
                {
                    "internalType": "string",
                    "name": "location",
                    "type": "string"
                },
                {
                    "internalType": "string",
                    "name": "cultivationPratices",
                    "type": "string"
                },
                {
                    "internalType": "string",
                    "name": "pesticides",
                    "type": "string"
                },
                {
                    "internalType": "string",
                    "name": "producedDate",
                    "type": "string"
                },
                {
                    "internalType": "uint256",
                    "name": "shelfLife",
                    "type": "uint256"
                },
                {
                    "internalType": "uint256",
                    "name": "price",
                    "type": "uint256"
                },
                {
                    "internalType": "uint256",
                    "name": "quantity",
                    "type": "uint256"
                },
                {
                    "internalType": "string",
                    "name": "imageURL",
                    "type": "string"
                }
            ],
            "stateMutability": "view",
            "type": "function"
        },
        {
            "inputs": [
                {
                    "internalType": "address",
                    "name": "",
                    "type": "address"
                }
            ],
            "name": "farmers",
            "outputs": [
                {
                    "internalType": "string",
                    "name": "name",
                    "type": "string"
                },
                {
                    "internalType": "address payable",
                    "name": "farmerAddress",
                    "type": "address"
                },
                {
                    "internalType": "string",
                    "name": "faddress",
                    "type": "string"
                },
                {
                    "internalType": "bool",
                    "name": "isRegistered",
                    "type": "bool"
                }
            ],
            "stateMutability": "view",
            "type": "function"
        },
        {
            "inputs": [
                {
                    "internalType": "address",
                    "name": "",
                    "type": "address"
                },
                {
                    "internalType": "uint256",
                    "name": "",
                    "type": "uint256"
                }
            ],
            "name": "manufacturerProducts",
            "outputs": [
                {
                    "internalType": "uint256",
                    "name": "id",
                    "type": "uint256"
                },
                {
                    "internalType": "string",
                    "name": "name",
                    "type": "string"
                },
                {
                    "internalType": "address payable",
                    "name": "manufacturerAddress",
                    "type": "address"
                },
                {
                    "internalType": "string",
                    "name": "manufacturedDate",
                    "type": "string"
                },
                {
                    "internalType": "string",
                    "name": "expireDate",
                    "type": "string"
                },
                {
                    "internalType": "string",
                    "name": "processingMethod",
                    "type": "string"
                },
                {
                    "internalType": "string",
                    "name": "packagingMaterial",
                    "type": "string"
                },
                {
                    "internalType": "uint256",
                    "name": "price",
                    "type": "uint256"
                },
                {
                    "internalType": "uint256",
                    "name": "quantity",
                    "type": "uint256"
                },
                {
                    "internalType": "string",
                    "name": "imageURL",
                    "type": "string"
                }
            ],
            "stateMutability": "view",
            "type": "function"
        },
        {
            "inputs": [
                {
                    "internalType": "address",
                    "name": "",
                    "type": "address"
                },
                {
                    "internalType": "uint256",
                    "name": "",
                    "type": "uint256"
                }
            ],
            "name": "manufacturerPurchasedRawMaterials",
            "outputs": [
                {
                    "internalType": "uint256",
                    "name": "id",
                    "type": "uint256"
                },
                {
                    "internalType": "string",
                    "name": "name",
                    "type": "string"
                },
                {
                    "internalType": "address payable",
                    "name": "farmerAddress",
                    "type": "address"
                },
                {
                    "internalType": "string",
                    "name": "location",
                    "type": "string"
                },
                {
                    "internalType": "string",
                    "name": "cultivationPratices",
                    "type": "string"
                },
                {
                    "internalType": "string",
                    "name": "pesticides",
                    "type": "string"
                },
                {
                    "internalType": "string",
                    "name": "producedDate",
                    "type": "string"
                },
                {
                    "internalType": "uint256",
                    "name": "shelfLife",
                    "type": "uint256"
                },
                {
                    "internalType": "uint256",
                    "name": "price",
                    "type": "uint256"
                },
                {
                    "internalType": "uint256",
                    "name": "quantity",
                    "type": "uint256"
                },
                {
                    "internalType": "string",
                    "name": "imageURL",
                    "type": "string"
                }
            ],
            "stateMutability": "view",
            "type": "function"
        },
        {
            "inputs": [
                {
                    "internalType": "address",
                    "name": "",
                    "type": "address"
                }
            ],
            "name": "manufacturers",
            "outputs": [
                {
                    "internalType": "string",
                    "name": "name",
                    "type": "string"
                },
                {
                    "internalType": "string",
                    "name": "industry",
                    "type": "string"
                },
                {
                    "internalType": "bool",
                    "name": "isRegistered",
                    "type": "bool"
                }
            ],
            "stateMutability": "view",
            "type": "function"
        },
        {
            "inputs": [
                {
                    "internalType": "bytes32",
                    "name": "",
                    "type": "bytes32"
                },
                {
                    "internalType": "uint256",
                    "name": "",
                    "type": "uint256"
                }
            ],
            "name": "partialNameToProductIds",
            "outputs": [
                {
                    "internalType": "uint256",
                    "name": "id",
                    "type": "uint256"
                },
                {
                    "internalType": "string",
                    "name": "name",
                    "type": "string"
                },
                {
                    "internalType": "address payable",
                    "name": "manufacturerAddress",
                    "type": "address"
                },
                {
                    "internalType": "string",
                    "name": "manufacturedDate",
                    "type": "string"
                },
                {
                    "internalType": "string",
                    "name": "expireDate",
                    "type": "string"
                },
                {
                    "internalType": "string",
                    "name": "processingMethod",
                    "type": "string"
                },
                {
                    "internalType": "string",
                    "name": "packagingMaterial",
                    "type": "string"
                },
                {
                    "internalType": "uint256",
                    "name": "price",
                    "type": "uint256"
                },
                {
                    "internalType": "uint256",
                    "name": "quantity",
                    "type": "uint256"
                },
                {
                    "internalType": "string",
                    "name": "imageURL",
                    "type": "string"
                }
            ],
            "stateMutability": "view",
            "type": "function"
        },
        {
            "inputs": [],
            "name": "productCounter",
            "outputs": [
                {
                    "internalType": "uint256",
                    "name": "",
                    "type": "uint256"
                }
            ],
            "stateMutability": "view",
            "type": "function"
        },
        {
            "inputs": [
                {
                    "internalType": "uint256",
                    "name": "_rawMaterialIndex",
                    "type": "uint256"
                },
                {
                    "internalType": "uint256",
                    "name": "_quantity",
                    "type": "uint256"
                }
            ],
            "name": "purchaseRawMaterial",
            "outputs": [],
            "stateMutability": "payable",
            "type": "function"
        },
        {
            "inputs": [],
            "name": "rawMaterialCounter",
            "outputs": [
                {
                    "internalType": "uint256",
                    "name": "",
                    "type": "uint256"
                }
            ],
            "stateMutability": "view",
            "type": "function"
        },
        {
            "inputs": [
                {
                    "internalType": "string",
                    "name": "_name",
                    "type": "string"
                }
            ],
            "name": "registerConsumer",
            "outputs": [],
            "stateMutability": "nonpayable",
            "type": "function"
        },
        {
            "inputs": [
                {
                    "internalType": "string",
                    "name": "_name",
                    "type": "string"
                },
                {
                    "internalType": "string",
                    "name": "_address",
                    "type": "string"
                }
            ],
            "name": "registerFarmer",
            "outputs": [],
            "stateMutability": "nonpayable",
            "type": "function"
        },
        {
            "inputs": [
                {
                    "internalType": "string",
                    "name": "_name",
                    "type": "string"
                },
                {
                    "internalType": "string",
                    "name": "_industry",
                    "type": "string"
                }
            ],
            "name": "registerManufacturer",
            "outputs": [],
            "stateMutability": "nonpayable",
            "type": "function"
        },
        {
            "inputs": [],
            "name": "viewAllRawMaterials",
            "outputs": [
                {
                    "components": [
                        {
                            "internalType": "uint256",
                            "name": "id",
                            "type": "uint256"
                        },
                        {
                            "internalType": "string",
                            "name": "name",
                            "type": "string"
                        },
                        {
                            "internalType": "address payable",
                            "name": "farmerAddress",
                            "type": "address"
                        },
                        {
                            "internalType": "string",
                            "name": "location",
                            "type": "string"
                        },
                        {
                            "internalType": "string",
                            "name": "cultivationPratices",
                            "type": "string"
                        },
                        {
                            "internalType": "string",
                            "name": "pesticides",
                            "type": "string"
                        },
                        {
                            "internalType": "string",
                            "name": "producedDate",
                            "type": "string"
                        },
                        {
                            "internalType": "uint256",
                            "name": "shelfLife",
                            "type": "uint256"
                        },
                        {
                            "internalType": "uint256",
                            "name": "price",
                            "type": "uint256"
                        },
                        {
                            "internalType": "uint256",
                            "name": "quantity",
                            "type": "uint256"
                        },
                        {
                            "internalType": "string",
                            "name": "imageURL",
                            "type": "string"
                        }
                    ],
                    "internalType": "struct OrganicProduct.RawMaterial[]",
                    "name": "",
                    "type": "tuple[]"
                }
            ],
            "stateMutability": "view",
            "type": "function"
        },
        {
            "inputs": [],
            "name": "viewFarmerRawMaterials",
            "outputs": [
                {
                    "components": [
                        {
                            "internalType": "uint256",
                            "name": "id",
                            "type": "uint256"
                        },
                        {
                            "internalType": "string",
                            "name": "name",
                            "type": "string"
                        },
                        {
                            "internalType": "address payable",
                            "name": "farmerAddress",
                            "type": "address"
                        },
                        {
                            "internalType": "string",
                            "name": "location",
                            "type": "string"
                        },
                        {
                            "internalType": "string",
                            "name": "cultivationPratices",
                            "type": "string"
                        },
                        {
                            "internalType": "string",
                            "name": "pesticides",
                            "type": "string"
                        },
                        {
                            "internalType": "string",
                            "name": "producedDate",
                            "type": "string"
                        },
                        {
                            "internalType": "uint256",
                            "name": "shelfLife",
                            "type": "uint256"
                        },
                        {
                            "internalType": "uint256",
                            "name": "price",
                            "type": "uint256"
                        },
                        {
                            "internalType": "uint256",
                            "name": "quantity",
                            "type": "uint256"
                        },
                        {
                            "internalType": "string",
                            "name": "imageURL",
                            "type": "string"
                        }
                    ],
                    "internalType": "struct OrganicProduct.RawMaterial[]",
                    "name": "",
                    "type": "tuple[]"
                }
            ],
            "stateMutability": "view",
            "type": "function"
        }
    ],
    "bytecode": "0x608060405234801561001057600080fd5b50600080546001600160a01b0319163317815560018190556002556132428061003a6000396000f3fe60806040526004361061011f5760003560e01c80634c59dca5116100a0578063c1538f9911610064578063c1538f9914610367578063cfaaef5614610387578063da7cb39f146103a7578063f851a440146103bd578063ff61a8ad146103f557600080fd5b80634c59dca51461029d57806355bd3610146102b25780635fe2b9ce146102d25780636b5eb09c14610308578063bed34bba1461033757600080fd5b806330b15caa116100e757806330b15caa146101d6578063314596b2146101f65780633f022f1714610216578063401b21681461024d57806346d6d3811461027d57600080fd5b80630bf5366814610124578063174aa9461461015b5780631e2d30201461017d5780631f16653b14610192578063224a4587146101b6575b600080fd5b34801561013057600080fd5b5061014461013f3660046127a4565b610415565b604051610152929190612816565b60405180910390f35b34801561016757600080fd5b506101706104bc565b604051610152919061283a565b61019061018b366004612977565b6108d2565b005b34801561019e57600080fd5b506101a860025481565b604051908152602001610152565b3480156101c257600080fd5b506101906101d1366004612a3c565b610fac565b3480156101e257600080fd5b506101906101f1366004612b50565b611300565b34801561020257600080fd5b50610190610211366004612b50565b6113f2565b34801561022257600080fd5b50610236610231366004612bb4565b611509565b6040516101529b9a99989796959493929190612bcd565b34801561025957600080fd5b5061026d6102683660046127a4565b6118ae565b6040516101529493929190612c81565b34801561028957600080fd5b50610236610298366004612cc9565b6119f8565b3480156102a957600080fd5b50610170611a3e565b3480156102be57600080fd5b506101906102cd366004612cf3565b611e40565b3480156102de57600080fd5b506102f26102ed366004612cc9565b611f18565b6040516101529a99989796959493929190612d30565b34801561031457600080fd5b506103286103233660046127a4565b6122c8565b60405161015293929190612ddc565b34801561034357600080fd5b50610357610352366004612b50565b6123fd565b6040519015158152602001610152565b34801561037357600080fd5b506102f2610382366004612977565b612457565b34801561039357600080fd5b506102f26103a2366004612bb4565b612473565b3480156103b357600080fd5b506101a860015481565b3480156103c957600080fd5b506000546103dd906001600160a01b031681565b6040516001600160a01b039091168152602001610152565b34801561040157600080fd5b50610236610410366004612cc9565b6124a8565b600a6020526000908152604090208054819061043090612e14565b80601f016020809104026020016040519081016040528092919081815260200182805461045c90612e14565b80156104a95780601f1061047e576101008083540402835291602001916104a9565b820191906000526020600020905b81548152906001019060200180831161048c57829003601f168201915b5050506001909301549192505060ff1682565b336000908152600860209081526040808320805482518185028101850190935280835260609492939192909184015b828210156108c957838290600052602060002090600b0201604051806101600160405290816000820154815260200160018201805461052990612e14565b80601f016020809104026020016040519081016040528092919081815260200182805461055590612e14565b80156105a25780601f10610577576101008083540402835291602001916105a2565b820191906000526020600020905b81548152906001019060200180831161058557829003601f168201915b505050918352505060028201546001600160a01b031660208201526003820180546040909201916105d290612e14565b80601f01602080910402602001604051908101604052809291908181526020018280546105fe90612e14565b801561064b5780601f106106205761010080835404028352916020019161064b565b820191906000526020600020905b81548152906001019060200180831161062e57829003601f168201915b5050505050815260200160048201805461066490612e14565b80601f016020809104026020016040519081016040528092919081815260200182805461069090612e14565b80156106dd5780601f106106b2576101008083540402835291602001916106dd565b820191906000526020600020905b8154815290600101906020018083116106c057829003601f168201915b505050505081526020016005820180546106f690612e14565b80601f016020809104026020016040519081016040528092919081815260200182805461072290612e14565b801561076f5780601f106107445761010080835404028352916020019161076f565b820191906000526020600020905b81548152906001019060200180831161075257829003601f168201915b5050505050815260200160068201805461078890612e14565b80601f01602080910402602001604051908101604052809291908181526020018280546107b490612e14565b80156108015780601f106107d657610100808354040283529160200191610801565b820191906000526020600020905b8154815290600101906020018083116107e457829003601f168201915b50505050508152602001600782015481526020016008820154815260200160098201548152602001600a8201805461083890612e14565b80601f016020809104026020016040519081016040528092919081815260200182805461086490612e14565b80156108b15780601f10610886576101008083540402835291602001916108b1565b820191906000526020600020905b81548152906001019060200180831161089457829003601f168201915b505050505081525050815260200190600101906104eb565b50505050905090565b3360009081526006602052604090206002015460ff166109535760405162461bcd60e51b815260206004820152603160248201527f4f6e6c792072656769737465726564206d616e756661637475726572732063616044820152706e206372656174652070726f647563747360781b60648201526084015b60405180910390fd5b60005b600354811015610fa757826003828154811061097457610974612e4e565b90600052602060002090600b02016000015403610f95576000600384815481106109a0576109a0612e4e565b90600052602060002090600b020190508060090154831115610a045760405162461bcd60e51b815260206004820152601f60248201527f5175616e746974792067726561746572207468616e20617661696c61626c6500604482015260640161094a565b6000838260080154610a169190612e7a565b905080341015610a805760405162461bcd60e51b815260206004820152602f60248201527f496e73756666696369656e742066756e647320746f207075726368617365207460448201526e1a19481c985dc81b585d195c9a585b608a1b606482015260840161094a565b60028201546040516001600160a01b039091169082156108fc029083906000818181858888f19350505050158015610abc573d6000803e3d6000fd5b5083826009016000828254610ad19190612e91565b90915550506009820154600003610aeb57610aeb856124c4565b6000604051806101600160405280878152602001846001018054610b0e90612e14565b80601f0160208091040260200160405190810160405280929190818152602001828054610b3a90612e14565b8015610b875780601f10610b5c57610100808354040283529160200191610b87565b820191906000526020600020905b815481529060010190602001808311610b6a57829003601f168201915b505050918352505060028501546001600160a01b03166020820152600385018054604090920191610bb790612e14565b80601f0160208091040260200160405190810160405280929190818152602001828054610be390612e14565b8015610c305780601f10610c0557610100808354040283529160200191610c30565b820191906000526020600020905b815481529060010190602001808311610c1357829003601f168201915b50505050508152602001846004018054610c4990612e14565b80601f0160208091040260200160405190810160405280929190818152602001828054610c7590612e14565b8015610cc25780601f10610c9757610100808354040283529160200191610cc2565b820191906000526020600020905b815481529060010190602001808311610ca557829003601f168201915b50505050508152602001846005018054610cdb90612e14565b80601f0160208091040260200160405190810160405280929190818152602001828054610d0790612e14565b8015610d545780601f10610d2957610100808354040283529160200191610d54565b820191906000526020600020905b815481529060010190602001808311610d3757829003601f168201915b50505050508152602001846006018054610d6d90612e14565b80601f0160208091040260200160405190810160405280929190818152602001828054610d9990612e14565b8015610de65780601f10610dbb57610100808354040283529160200191610de6565b820191906000526020600020905b815481529060010190602001808311610dc957829003601f168201915b50505050508152602001846007015481526020018460080154815260200186815260200184600a018054610e1990612e14565b80601f0160208091040260200160405190810160405280929190818152602001828054610e4590612e14565b8015610e925780601f10610e6757610100808354040283529160200191610e92565b820191906000526020600020905b815481529060010190602001808311610e7557829003601f168201915b5050509190925250503360009081526007602090815260408220805460018181018355918452928290208451600b9094020192835590830151929350839290820190610ede9082612ef2565b5060408201516002820180546001600160a01b0319166001600160a01b0390921691909117905560608201516003820190610f199082612ef2565b5060808201516004820190610f2e9082612ef2565b5060a08201516005820190610f439082612ef2565b5060c08201516006820190610f589082612ef2565b5060e0820151600782015561010082015160088201556101208201516009820155610140820151600a820190610f8e9082612ef2565b5050505050505b80610f9f81612fb2565b915050610956565b505050565b3360009081526005602052604090206003015460ff166110245760405162461bcd60e51b815260206004820152602d60248201527f4f6e6c792072656769737465726564206661726d6572732063616e206164642060448201526c726177206d6174657269616c7360981b606482015260840161094a565b604080516101608101825260018054825260208083018d815233848601819052606085018e9052608085018d905260a085018c905260c085018b905260e085018a905261010085018990526101208501889052610140850187905260009081526008835294852080548085018255908652919094208351600b9092020190815592519192839290918201906110b99082612ef2565b5060408201516002820180546001600160a01b0319166001600160a01b03909216919091179055606082015160038201906110f49082612ef2565b50608082015160048201906111099082612ef2565b5060a0820151600582019061111e9082612ef2565b5060c082015160068201906111339082612ef2565b5060e0820151600782015561010082015160088201556101208201516009820155610140820151600a8201906111699082612ef2565b5050600380546001810182556000919091528251600b9091027fc2575a0e9e593c00f959f8c92f12db2869c3395a3b0502d05e2516446f71f85b810191825560208401518493507fc2575a0e9e593c00f959f8c92f12db2869c3395a3b0502d05e2516446f71f85c909101906111df9082612ef2565b5060408201516002820180546001600160a01b0319166001600160a01b039092169190911790556060820151600382019061121a9082612ef2565b506080820151600482019061122f9082612ef2565b5060a082015160058201906112449082612ef2565b5060c082015160068201906112599082612ef2565b5060e0820151600782015561010082015160088201556101208201516009820155610140820151600a82019061128f9082612ef2565b50506001546040513392507ff52822d98590aa52017b594d44d1e6d668711d42ca11bba76db9e0c93df1653a916112d7918e908e908e908e908e908e908e908e908e90612fcb565b60405180910390a2600180549060006112ef83612fb2565b919050555050505050505050505050565b3360009081526006602052604090206002015460ff16156113335760405162461bcd60e51b815260040161094a9061305d565b6040805160608101825283815260208082018490526001828401523360009081526006909152919091208151819061136b9082612ef2565b50602082015160018201906113809082612ef2565b506040918201516002918201805491151560ff1992831617905533600081815260066020528490209092018054909116600117905590517f0404b4c331fa7343824d265ca4ab3d731047810f3942b355247ae2c56511f3ce906113e69085908590613094565b60405180910390a25050565b3360009081526005602052604090206003015460ff16156114255760405162461bcd60e51b815260040161094a9061305d565b604080516080810182528381523360208083018290528284018590526001606084015260009182526005905291909120815181906114639082612ef2565b5060208201516001820180546001600160a01b0319166001600160a01b039092169190911790556040820151600282019061149e9082612ef2565b50606091909101516003918201805491151560ff199283161790553360008181526005602052604090819020909301805490921660011790915590517f851322da2e414e9965ce5ecef6890861b23f27fe84bd9646b7de8aea70efcb56906113e69085908590613094565b6003818154811061151957600080fd5b60009182526020909120600b9091020180546001820180549193509061153e90612e14565b80601f016020809104026020016040519081016040528092919081815260200182805461156a90612e14565b80156115b75780601f1061158c576101008083540402835291602001916115b7565b820191906000526020600020905b81548152906001019060200180831161159a57829003601f168201915b505050600284015460038501805494956001600160a01b039092169491935091506115e190612e14565b80601f016020809104026020016040519081016040528092919081815260200182805461160d90612e14565b801561165a5780601f1061162f5761010080835404028352916020019161165a565b820191906000526020600020905b81548152906001019060200180831161163d57829003601f168201915b50505050509080600401805461166f90612e14565b80601f016020809104026020016040519081016040528092919081815260200182805461169b90612e14565b80156116e85780601f106116bd576101008083540402835291602001916116e8565b820191906000526020600020905b8154815290600101906020018083116116cb57829003601f168201915b5050505050908060050180546116fd90612e14565b80601f016020809104026020016040519081016040528092919081815260200182805461172990612e14565b80156117765780601f1061174b57610100808354040283529160200191611776565b820191906000526020600020905b81548152906001019060200180831161175957829003601f168201915b50505050509080600601805461178b90612e14565b80601f01602080910402602001604051908101604052809291908181526020018280546117b790612e14565b80156118045780601f106117d957610100808354040283529160200191611804565b820191906000526020600020905b8154815290600101906020018083116117e757829003601f168201915b50505050509080600701549080600801549080600901549080600a01805461182b90612e14565b80601f016020809104026020016040519081016040528092919081815260200182805461185790612e14565b80156118a45780601f10611879576101008083540402835291602001916118a4565b820191906000526020600020905b81548152906001019060200180831161188757829003601f168201915b505050505090508b565b6005602052600090815260409020805481906118c990612e14565b80601f01602080910402602001604051908101604052809291908181526020018280546118f590612e14565b80156119425780601f1061191757610100808354040283529160200191611942565b820191906000526020600020905b81548152906001019060200180831161192557829003601f168201915b505050600184015460028501805494956001600160a01b0390921694919350915061196c90612e14565b80601f016020809104026020016040519081016040528092919081815260200182805461199890612e14565b80156119e55780601f106119ba576101008083540402835291602001916119e5565b820191906000526020600020905b8154815290600101906020018083116119c857829003601f168201915b5050506003909301549192505060ff1684565b60086020528160005260406000208181548110611a1457600080fd5b90600052602060002090600b02016000915091505080600001549080600101805461153e90612e14565b60606003805480602002602001604051908101604052809291908181526020016000905b828210156108c957838290600052602060002090600b02016040518061016001604052908160008201548152602001600182018054611aa090612e14565b80601f0160208091040260200160405190810160405280929190818152602001828054611acc90612e14565b8015611b195780601f10611aee57610100808354040283529160200191611b19565b820191906000526020600020905b815481529060010190602001808311611afc57829003601f168201915b505050918352505060028201546001600160a01b03166020820152600382018054604090920191611b4990612e14565b80601f0160208091040260200160405190810160405280929190818152602001828054611b7590612e14565b8015611bc25780601f10611b9757610100808354040283529160200191611bc2565b820191906000526020600020905b815481529060010190602001808311611ba557829003601f168201915b50505050508152602001600482018054611bdb90612e14565b80601f0160208091040260200160405190810160405280929190818152602001828054611c0790612e14565b8015611c545780601f10611c2957610100808354040283529160200191611c54565b820191906000526020600020905b815481529060010190602001808311611c3757829003601f168201915b50505050508152602001600582018054611c6d90612e14565b80601f0160208091040260200160405190810160405280929190818152602001828054611c9990612e14565b8015611ce65780601f10611cbb57610100808354040283529160200191611ce6565b820191906000526020600020905b815481529060010190602001808311611cc957829003601f168201915b50505050508152602001600682018054611cff90612e14565b80601f0160208091040260200160405190810160405280929190818152602001828054611d2b90612e14565b8015611d785780601f10611d4d57610100808354040283529160200191611d78565b820191906000526020600020905b815481529060010190602001808311611d5b57829003601f168201915b50505050508152602001600782015481526020016008820154815260200160098201548152602001600a82018054611daf90612e14565b80601f0160208091040260200160405190810160405280929190818152602001828054611ddb90612e14565b8015611e285780601f10611dfd57610100808354040283529160200191611e28565b820191906000526020600020905b815481529060010190602001808311611e0b57829003601f168201915b50505050508152505081526020019060010190611a62565b336000908152600a602052604090206001015460ff1615611e735760405162461bcd60e51b815260040161094a9061305d565b6040805180820182528281526001602080830191909152336000908152600a9091529190912081518190611ea79082612ef2565b506020918201516001918201805491151560ff19928316179055336000818152600a90945260409384902083018054909216909217905590517f397fc7b52fe34f12198884b039c9d92048fb1761bceb5879742a789ab7389edd90611f0d9084906130c2565b60405180910390a250565b60096020528160005260406000208181548110611f3457600080fd5b90600052602060002090600b020160009150915050806000015490806001018054611f5e90612e14565b80601f0160208091040260200160405190810160405280929190818152602001828054611f8a90612e14565b8015611fd75780601f10611fac57610100808354040283529160200191611fd7565b820191906000526020600020905b815481529060010190602001808311611fba57829003601f168201915b505050600284015460038501805494956001600160a01b0390921694919350915061200190612e14565b80601f016020809104026020016040519081016040528092919081815260200182805461202d90612e14565b801561207a5780601f1061204f5761010080835404028352916020019161207a565b820191906000526020600020905b81548152906001019060200180831161205d57829003601f168201915b50505050509080600401805461208f90612e14565b80601f01602080910402602001604051908101604052809291908181526020018280546120bb90612e14565b80156121085780601f106120dd57610100808354040283529160200191612108565b820191906000526020600020905b8154815290600101906020018083116120eb57829003601f168201915b50505050509080600501805461211d90612e14565b80601f016020809104026020016040519081016040528092919081815260200182805461214990612e14565b80156121965780601f1061216b57610100808354040283529160200191612196565b820191906000526020600020905b81548152906001019060200180831161217957829003601f168201915b5050505050908060060180546121ab90612e14565b80601f01602080910402602001604051908101604052809291908181526020018280546121d790612e14565b80156122245780601f106121f957610100808354040283529160200191612224565b820191906000526020600020905b81548152906001019060200180831161220757829003601f168201915b50505050509080600701549080600801549080600a01805461224590612e14565b80601f016020809104026020016040519081016040528092919081815260200182805461227190612e14565b80156122be5780601f10612293576101008083540402835291602001916122be565b820191906000526020600020905b8154815290600101906020018083116122a157829003601f168201915b505050505090508a565b6006602052600090815260409020805481906122e390612e14565b80601f016020809104026020016040519081016040528092919081815260200182805461230f90612e14565b801561235c5780601f106123315761010080835404028352916020019161235c565b820191906000526020600020905b81548152906001019060200180831161233f57829003601f168201915b50505050509080600101805461237190612e14565b80601f016020809104026020016040519081016040528092919081815260200182805461239d90612e14565b80156123ea5780601f106123bf576101008083540402835291602001916123ea565b820191906000526020600020905b8154815290600101906020018083116123cd57829003601f168201915b5050506002909301549192505060ff1683565b60008160405160200161241091906130d5565b604051602081830303815290604052805190602001208360405160200161243791906130d5565b604051602081830303815290604052805190602001201490505b92915050565b600b6020528160005260406000208181548110611f3457600080fd5b6004818154811061248357600080fd5b60009182526020909120600b90910201805460018201805491935090611f5e90612e14565b60076020528160005260406000208181548110611a1457600080fd5b60035481106125155760405162461bcd60e51b815260206004820152601a60248201527f496e76616c696420726177206d6174657269616c20696e646578000000000000604482015260640161094a565b805b60035461252690600190612e91565b81101561268157600361253a8260016130f1565b8154811061254a5761254a612e4e565b90600052602060002090600b02016003828154811061256b5761256b612e4e565b600091825260209091208254600b9092020190815560018082019061259290840182613104565b5060028281015490820180546001600160a01b0319166001600160a01b039092169190911790556003808201906125cb90840182613104565b506004818101906125de90840182613104565b506005818101906125f190840182613104565b5060068181019061260490840182613104565b50600782015481600701556008820154816008015560098201548160090155600a820181600a0190816126379190613104565b509050506003818154811061264e5761264e612e4e565b600091825260208220600b90910201805491612669836131df565b9190505550808061267990612fb2565b915050612517565b506003805480612693576126936131f6565b600082815260208120600b60001990930192830201818155906126b96001830182612732565b6002820180546001600160a01b03191690556126d9600383016000612732565b6126e7600483016000612732565b6126f5600583016000612732565b612703600683016000612732565b600782016000905560088201600090556009820160009055600a8201600061272b9190612732565b5050905550565b50805461273e90612e14565b6000825580601f1061274e575050565b601f01602090049060005260206000209081019061276c919061276f565b50565b5b808211156127845760008155600101612770565b5090565b80356001600160a01b038116811461279f57600080fd5b919050565b6000602082840312156127b657600080fd5b6127bf82612788565b9392505050565b60005b838110156127e15781810151838201526020016127c9565b50506000910152565b600081518084526128028160208601602086016127c6565b601f01601f19169290920160200192915050565b60408152600061282960408301856127ea565b905082151560208301529392505050565b60006020808301818452808551808352604092508286019150828160051b87010184880160005b8381101561296957603f1989840301855281516101608151855288820151818a870152612890828701826127ea565b915050878201516128ab898701826001600160a01b03169052565b50606080830151868303828801526128c383826127ea565b92505050608080830151868303828801526128de83826127ea565b9250505060a080830151868303828801526128f983826127ea565b9250505060c0808301518683038288015261291483826127ea565b60e0858101519089015261010080860151908901526101208086015190890152610140948501518882039589019590955292506129559150829050836127ea565b968901969450505090860190600101612861565b509098975050505050505050565b6000806040838503121561298a57600080fd5b50508035926020909101359150565b634e487b7160e01b600052604160045260246000fd5b600082601f8301126129c057600080fd5b813567ffffffffffffffff808211156129db576129db612999565b604051601f8301601f19908116603f01168101908282118183101715612a0357612a03612999565b81604052838152866020858801011115612a1c57600080fd5b836020870160208301376000602085830101528094505050505092915050565b60008060008060008060008060006101208a8c031215612a5b57600080fd5b893567ffffffffffffffff80821115612a7357600080fd5b612a7f8d838e016129af565b9a5060208c0135915080821115612a9557600080fd5b612aa18d838e016129af565b995060408c0135915080821115612ab757600080fd5b612ac38d838e016129af565b985060608c0135915080821115612ad957600080fd5b612ae58d838e016129af565b975060808c0135915080821115612afb57600080fd5b612b078d838e016129af565b965060a08c0135955060c08c0135945060e08c013593506101008c0135915080821115612b3357600080fd5b50612b408c828d016129af565b9150509295985092959850929598565b60008060408385031215612b6357600080fd5b823567ffffffffffffffff80821115612b7b57600080fd5b612b87868387016129af565b93506020850135915080821115612b9d57600080fd5b50612baa858286016129af565b9150509250929050565b600060208284031215612bc657600080fd5b5035919050565b60006101608d8352806020840152612be78184018e6127ea565b6001600160a01b038d16604085015283810360608501529050612c0a818c6127ea565b90508281036080840152612c1e818b6127ea565b905082810360a0840152612c32818a6127ea565b905082810360c0840152612c4681896127ea565b90508660e08401528561010084015284610120840152828103610140840152612c6f81856127ea565b9e9d5050505050505050505050505050565b608081526000612c9460808301876127ea565b6001600160a01b03861660208401528281036040840152612cb581866127ea565b915050821515606083015295945050505050565b60008060408385031215612cdc57600080fd5b612ce583612788565b946020939093013593505050565b600060208284031215612d0557600080fd5b813567ffffffffffffffff811115612d1c57600080fd5b612d28848285016129af565b949350505050565b60006101408c8352806020840152612d4a8184018d6127ea565b6001600160a01b038c16604085015283810360608501529050612d6d818b6127ea565b90508281036080840152612d81818a6127ea565b905082810360a0840152612d9581896127ea565b905082810360c0840152612da981886127ea565b90508560e084015284610100840152828103610120840152612dcb81856127ea565b9d9c50505050505050505050505050565b606081526000612def60608301866127ea565b8281036020840152612e0181866127ea565b9150508215156040830152949350505050565b600181811c90821680612e2857607f821691505b602082108103612e4857634e487b7160e01b600052602260045260246000fd5b50919050565b634e487b7160e01b600052603260045260246000fd5b634e487b7160e01b600052601160045260246000fd5b808202811582820484141761245157612451612e64565b8181038181111561245157612451612e64565b601f821115610fa757600081815260208120601f850160051c81016020861015612ecb5750805b601f850160051c820191505b81811015612eea57828155600101612ed7565b505050505050565b815167ffffffffffffffff811115612f0c57612f0c612999565b612f2081612f1a8454612e14565b84612ea4565b602080601f831160018114612f555760008415612f3d5750858301515b600019600386901b1c1916600185901b178555612eea565b600085815260208120601f198616915b82811015612f8457888601518255948401946001909101908401612f65565b5085821015612fa25787850151600019600388901b60f8161c191681555b5050505050600190811b01905550565b600060018201612fc457612fc4612e64565b5060010190565b60006101408c8352806020840152612fe58184018d6127ea565b90508281036040840152612ff9818c6127ea565b9050828103606084015261300d818b6127ea565b90508281036080840152613021818a6127ea565b905082810360a084015261303581896127ea565b90508660c08401528560e084015284610100840152828103610120840152612dcb81856127ea565b60208082526017908201527f5573657220616c72656164792072656769737465726564000000000000000000604082015260600190565b6040815260006130a760408301856127ea565b82810360208401526130b981856127ea565b95945050505050565b6020815260006127bf60208301846127ea565b600082516130e78184602087016127c6565b9190910192915050565b8082018082111561245157612451612e64565b81810361310f575050565b6131198254612e14565b67ffffffffffffffff81111561313157613131612999565b61313f81612f1a8454612e14565b6000601f821160018114613173576000831561315b5750848201545b600019600385901b1c1916600184901b1784556131d8565b600085815260209020601f19841690600086815260209020845b838110156131ad578286015482556001958601959091019060200161318d565b50858310156131cb5781850154600019600388901b60f8161c191681555b50505060018360011b0184555b5050505050565b6000816131ee576131ee612e64565b506000190190565b634e487b7160e01b600052603160045260246000fdfea2646970667358221220199af6cf4594cded5613cd6a01e0b9dbe223d9fa9cf05dc9d73b21732b80da5f64736f6c63430008130033",
    "linkReferences": {},
    "deployedLinkReferences": {}
}