{
    "_format": "hh-sol-artifact-1",
    "contractName": "OrganicProductLifeCycle",
    "sourceName": "contracts/OrganicProductLifeCycle.sol",
    "abi": [
        {
            "anonymous": false,
            "inputs": [
                {
                    "indexed": true,
                    "internalType": "address",
                    "name": "consumer",
                    "type": "address"
                },
                {
                    "indexed": false,
                    "internalType": "string",
                    "name": "name",
                    "type": "string"
                }
            ],
            "name": "ConsumerRegistered",
            "type": "event"
        },
        {
            "anonymous": false,
            "inputs": [
                {
                    "indexed": true,
                    "internalType": "address",
                    "name": "farmer",
                    "type": "address"
                },
                {
                    "indexed": false,
                    "internalType": "string",
                    "name": "name",
                    "type": "string"
                },
                {
                    "indexed": false,
                    "internalType": "string",
                    "name": "faddress",
                    "type": "string"
                }
            ],
            "name": "FarmerRegistered",
            "type": "event"
        },
        {
            "anonymous": false,
            "inputs": [
                {
                    "indexed": true,
                    "internalType": "address",
                    "name": "manufacturer",
                    "type": "address"
                },
                {
                    "indexed": false,
                    "internalType": "string",
                    "name": "name",
                    "type": "string"
                },
                {
                    "indexed": false,
                    "internalType": "string",
                    "name": "industry",
                    "type": "string"
                }
            ],
            "name": "ManufacturerRegistered",
            "type": "event"
        },
        {
            "anonymous": false,
            "inputs": [
                {
                    "indexed": true,
                    "internalType": "address",
                    "name": "manufacturer",
                    "type": "address"
                },
                {
                    "indexed": false,
                    "internalType": "uint256",
                    "name": "id",
                    "type": "uint256"
                }
            ],
            "name": "ProductAdded",
            "type": "event"
        },
        {
            "anonymous": false,
            "inputs": [
                {
                    "indexed": true,
                    "internalType": "address",
                    "name": "farmer",
                    "type": "address"
                },
                {
                    "indexed": false,
                    "internalType": "uint256",
                    "name": "id",
                    "type": "uint256"
                },
                {
                    "indexed": false,
                    "internalType": "string",
                    "name": "name",
                    "type": "string"
                },
                {
                    "indexed": false,
                    "internalType": "string",
                    "name": "location",
                    "type": "string"
                },
                {
                    "indexed": false,
                    "internalType": "string",
                    "name": "cultivationPratices",
                    "type": "string"
                },
                {
                    "indexed": false,
                    "internalType": "string",
                    "name": "pesticides",
                    "type": "string"
                },
                {
                    "indexed": false,
                    "internalType": "string",
                    "name": "producedDate",
                    "type": "string"
                },
                {
                    "indexed": false,
                    "internalType": "uint256",
                    "name": "shelfLife",
                    "type": "uint256"
                },
                {
                    "indexed": false,
                    "internalType": "uint256",
                    "name": "price",
                    "type": "uint256"
                },
                {
                    "indexed": false,
                    "internalType": "uint256",
                    "name": "quantity",
                    "type": "uint256"
                },
                {
                    "indexed": false,
                    "internalType": "string",
                    "name": "imageURL",
                    "type": "string"
                }
            ],
            "name": "RawMaterialAdded",
            "type": "event"
        },
        {
            "inputs": [
                {
                    "internalType": "string",
                    "name": "_name",
                    "type": "string"
                },
                {
                    "internalType": "string",
                    "name": "_manufacturedDate",
                    "type": "string"
                },
                {
                    "internalType": "string",
                    "name": "_expireDate",
                    "type": "string"
                },
                {
                    "internalType": "string",
                    "name": "_processingMethod",
                    "type": "string"
                },
                {
                    "internalType": "string",
                    "name": "_packagingMaterial",
                    "type": "string"
                },
                {
                    "internalType": "uint256",
                    "name": "_price",
                    "type": "uint256"
                },
                {
                    "internalType": "uint256",
                    "name": "_quantity",
                    "type": "uint256"
                },
                {
                    "internalType": "uint256[]",
                    "name": "_rawMaterialIndices",
                    "type": "uint256[]"
                },
                {
                    "internalType": "string",
                    "name": "_imageURL",
                    "type": "string"
                }
            ],
            "name": "addProduct",
            "outputs": [],
            "stateMutability": "nonpayable",
            "type": "function"
        },
        {
            "inputs": [
                {
                    "internalType": "string",
                    "name": "_name",
                    "type": "string"
                },
                {
                    "internalType": "string",
                    "name": "_location",
                    "type": "string"
                },
                {
                    "internalType": "string",
                    "name": "_cultivationPratices",
                    "type": "string"
                },
                {
                    "internalType": "string",
                    "name": "_pesticides",
                    "type": "string"
                },
                {
                    "internalType": "string",
                    "name": "_producedDate",
                    "type": "string"
                },
                {
                    "internalType": "uint256",
                    "name": "_shelfLife",
                    "type": "uint256"
                },
                {
                    "internalType": "uint256",
                    "name": "_price",
                    "type": "uint256"
                },
                {
                    "internalType": "uint256",
                    "name": "_quantity",
                    "type": "uint256"
                },
                {
                    "internalType": "string",
                    "name": "_URL",
                    "type": "string"
                }
            ],
            "name": "addRawMaterials",
            "outputs": [],
            "stateMutability": "nonpayable",
            "type": "function"
        },
        {
            "inputs": [],
            "name": "admin",
            "outputs": [
                {
                    "internalType": "address",
                    "name": "",
                    "type": "address"
                }
            ],
            "stateMutability": "view",
            "type": "function"
        },
        {
            "inputs": [
                {
                    "internalType": "uint256",
                    "name": "",
                    "type": "uint256"
                }
            ],
            "name": "allProducts",
            "outputs": [
                {
                    "internalType": "uint256",
                    "name": "id",
                    "type": "uint256"
                },
                {
                    "internalType": "string",
                    "name": "name",
                    "type": "string"
                },
                {
                    "internalType": "address payable",
                    "name": "manufacturerAddress",
                    "type": "address"
                },
                {
                    "internalType": "string",
                    "name": "manufacturedDate",
                    "type": "string"
                },
                {
                    "internalType": "string",
                    "name": "expireDate",
                    "type": "string"
                },
                {
                    "internalType": "string",
                    "name": "processingMethod",
                    "type": "string"
                },
                {
                    "internalType": "string",
                    "name": "packagingMaterial",
                    "type": "string"
                },
                {
                    "internalType": "uint256",
                    "name": "price",
                    "type": "uint256"
                },
                {
                    "internalType": "uint256",
                    "name": "quantity",
                    "type": "uint256"
                },
                {
                    "internalType": "string",
                    "name": "imageURL",
                    "type": "string"
                }
            ],
            "stateMutability": "view",
            "type": "function"
        },
        {
            "inputs": [
                {
                    "internalType": "uint256",
                    "name": "",
                    "type": "uint256"
                }
            ],
            "name": "allRawMaterials",
            "outputs": [
                {
                    "internalType": "uint256",
                    "name": "id",
                    "type": "uint256"
                },
                {
                    "internalType": "string",
                    "name": "name",
                    "type": "string"
                },
                {
                    "internalType": "address payable",
                    "name": "farmerAddress",
                    "type": "address"
                },
                {
                    "internalType": "string",
                    "name": "location",
                    "type": "string"
                },
                {
                    "internalType": "string",
                    "name": "cultivationPratices",
                    "type": "string"
                },
                {
                    "internalType": "string",
                    "name": "pesticides",
                    "type": "string"
                },
                {
                    "internalType": "string",
                    "name": "producedDate",
                    "type": "string"
                },
                {
                    "internalType": "uint256",
                    "name": "shelfLife",
                    "type": "uint256"
                },
                {
                    "internalType": "uint256",
                    "name": "price",
                    "type": "uint256"
                },
                {
                    "internalType": "uint256",
                    "name": "quantity",
                    "type": "uint256"
                },
                {
                    "internalType": "string",
                    "name": "imageURL",
                    "type": "string"
                }
            ],
            "stateMutability": "view",
            "type": "function"
        },
        {
            "inputs": [
                {
                    "internalType": "string",
                    "name": "a",
                    "type": "string"
                },
                {
                    "internalType": "string",
                    "name": "b",
                    "type": "string"
                }
            ],
            "name": "compareStrings",
            "outputs": [
                {
                    "internalType": "bool",
                    "name": "",
                    "type": "bool"
                }
            ],
            "stateMutability": "pure",
            "type": "function"
        },
        {
            "inputs": [
                {
                    "internalType": "address",
                    "name": "",
                    "type": "address"
                }
            ],
            "name": "consumers",
            "outputs": [
                {
                    "internalType": "string",
                    "name": "name",
                    "type": "string"
                },
                {
                    "internalType": "bool",
                    "name": "isRegistered",
                    "type": "bool"
                }
            ],
            "stateMutability": "view",
            "type": "function"
        },
        {
            "inputs": [
                {
                    "internalType": "address",
                    "name": "",
                    "type": "address"
                },
                {
                    "internalType": "uint256",
                    "name": "",
                    "type": "uint256"
                }
            ],
            "name": "farmerRawMaterials",
            "outputs": [
                {
                    "internalType": "uint256",
                    "name": "id",
                    "type": "uint256"
                },
                {
                    "internalType": "string",
                    "name": "name",
                    "type": "string"
                },
                {
                    "internalType": "address payable",
                    "name": "farmerAddress",
                    "type": "address"
                },
                {
                    "internalType": "string",
                    "name": "location",
                    "type": "string"
                },
                {
                    "internalType": "string",
                    "name": "cultivationPratices",
                    "type": "string"
                },
                {
                    "internalType": "string",
                    "name": "pesticides",
                    "type": "string"
                },
                {
                    "internalType": "string",
                    "name": "producedDate",
                    "type": "string"
                },
                {
                    "internalType": "uint256",
                    "name": "shelfLife",
                    "type": "uint256"
                },
                {
                    "internalType": "uint256",
                    "name": "price",
                    "type": "uint256"
                },
                {
                    "internalType": "uint256",
                    "name": "quantity",
                    "type": "uint256"
                },
                {
                    "internalType": "string",
                    "name": "imageURL",
                    "type": "string"
                }
            ],
            "stateMutability": "view",
            "type": "function"
        },
        {
            "inputs": [
                {
                    "internalType": "address",
                    "name": "",
                    "type": "address"
                }
            ],
            "name": "farmers",
            "outputs": [
                {
                    "internalType": "string",
                    "name": "name",
                    "type": "string"
                },
                {
                    "internalType": "address payable",
                    "name": "farmerAddress",
                    "type": "address"
                },
                {
                    "internalType": "string",
                    "name": "faddress",
                    "type": "string"
                },
                {
                    "internalType": "bool",
                    "name": "isRegistered",
                    "type": "bool"
                }
            ],
            "stateMutability": "view",
            "type": "function"
        },
        {
            "inputs": [
                {
                    "internalType": "uint256",
                    "name": "productIndex",
                    "type": "uint256"
                }
            ],
            "name": "getProductDetails",
            "outputs": [
                {
                    "internalType": "string",
                    "name": "name",
                    "type": "string"
                },
                {
                    "internalType": "string",
                    "name": "manufacturedDate",
                    "type": "string"
                },
                {
                    "internalType": "string",
                    "name": "expireDate",
                    "type": "string"
                },
                {
                    "internalType": "address",
                    "name": "manufacturerAddress",
                    "type": "address"
                },
                {
                    "internalType": "uint256",
                    "name": "price",
                    "type": "uint256"
                },
                {
                    "internalType": "uint256",
                    "name": "quantity",
                    "type": "uint256"
                },
                {
                    "internalType": "uint256[]",
                    "name": "rawMaterialIndices",
                    "type": "uint256[]"
                }
            ],
            "stateMutability": "view",
            "type": "function"
        },
        {
            "inputs": [
                {
                    "internalType": "uint256",
                    "name": "productIndex",
                    "type": "uint256"
                }
            ],
            "name": "getRawMaterialsForProduct",
            "outputs": [
                {
                    "components": [
                        {
                            "internalType": "uint256",
                            "name": "id",
                            "type": "uint256"
                        },
                        {
                            "internalType": "string",
                            "name": "name",
                            "type": "string"
                        },
                        {
                            "internalType": "address payable",
                            "name": "farmerAddress",
                            "type": "address"
                        },
                        {
                            "internalType": "string",
                            "name": "location",
                            "type": "string"
                        },
                        {
                            "internalType": "string",
                            "name": "cultivationPratices",
                            "type": "string"
                        },
                        {
                            "internalType": "string",
                            "name": "pesticides",
                            "type": "string"
                        },
                        {
                            "internalType": "string",
                            "name": "producedDate",
                            "type": "string"
                        },
                        {
                            "internalType": "uint256",
                            "name": "shelfLife",
                            "type": "uint256"
                        },
                        {
                            "internalType": "uint256",
                            "name": "price",
                            "type": "uint256"
                        },
                        {
                            "internalType": "uint256",
                            "name": "quantity",
                            "type": "uint256"
                        },
                        {
                            "internalType": "string",
                            "name": "imageURL",
                            "type": "string"
                        }
                    ],
                    "internalType": "struct OrganicProduct.RawMaterial[]",
                    "name": "",
                    "type": "tuple[]"
                }
            ],
            "stateMutability": "view",
            "type": "function"
        },
        {
            "inputs": [
                {
                    "internalType": "address",
                    "name": "",
                    "type": "address"
                },
                {
                    "internalType": "uint256",
                    "name": "",
                    "type": "uint256"
                }
            ],
            "name": "manufacturerProducts",
            "outputs": [
                {
                    "internalType": "uint256",
                    "name": "id",
                    "type": "uint256"
                },
                {
                    "internalType": "string",
                    "name": "name",
                    "type": "string"
                },
                {
                    "internalType": "address payable",
                    "name": "manufacturerAddress",
                    "type": "address"
                },
                {
                    "internalType": "string",
                    "name": "manufacturedDate",
                    "type": "string"
                },
                {
                    "internalType": "string",
                    "name": "expireDate",
                    "type": "string"
                },
                {
                    "internalType": "string",
                    "name": "processingMethod",
                    "type": "string"
                },
                {
                    "internalType": "string",
                    "name": "packagingMaterial",
                    "type": "string"
                },
                {
                    "internalType": "uint256",
                    "name": "price",
                    "type": "uint256"
                },
                {
                    "internalType": "uint256",
                    "name": "quantity",
                    "type": "uint256"
                },
                {
                    "internalType": "string",
                    "name": "imageURL",
                    "type": "string"
                }
            ],
            "stateMutability": "view",
            "type": "function"
        },
        {
            "inputs": [
                {
                    "internalType": "address",
                    "name": "",
                    "type": "address"
                },
                {
                    "internalType": "uint256",
                    "name": "",
                    "type": "uint256"
                }
            ],
            "name": "manufacturerPurchasedRawMaterials",
            "outputs": [
                {
                    "internalType": "uint256",
                    "name": "id",
                    "type": "uint256"
                },
                {
                    "internalType": "string",
                    "name": "name",
                    "type": "string"
                },
                {
                    "internalType": "address payable",
                    "name": "farmerAddress",
                    "type": "address"
                },
                {
                    "internalType": "string",
                    "name": "location",
                    "type": "string"
                },
                {
                    "internalType": "string",
                    "name": "cultivationPratices",
                    "type": "string"
                },
                {
                    "internalType": "string",
                    "name": "pesticides",
                    "type": "string"
                },
                {
                    "internalType": "string",
                    "name": "producedDate",
                    "type": "string"
                },
                {
                    "internalType": "uint256",
                    "name": "shelfLife",
                    "type": "uint256"
                },
                {
                    "internalType": "uint256",
                    "name": "price",
                    "type": "uint256"
                },
                {
                    "internalType": "uint256",
                    "name": "quantity",
                    "type": "uint256"
                },
                {
                    "internalType": "string",
                    "name": "imageURL",
                    "type": "string"
                }
            ],
            "stateMutability": "view",
            "type": "function"
        },
        {
            "inputs": [
                {
                    "internalType": "address",
                    "name": "",
                    "type": "address"
                }
            ],
            "name": "manufacturers",
            "outputs": [
                {
                    "internalType": "string",
                    "name": "name",
                    "type": "string"
                },
                {
                    "internalType": "string",
                    "name": "industry",
                    "type": "string"
                },
                {
                    "internalType": "bool",
                    "name": "isRegistered",
                    "type": "bool"
                }
            ],
            "stateMutability": "view",
            "type": "function"
        },
        {
            "inputs": [],
            "name": "myProducts",
            "outputs": [
                {
                    "components": [
                        {
                            "internalType": "uint256",
                            "name": "id",
                            "type": "uint256"
                        },
                        {
                            "internalType": "string",
                            "name": "name",
                            "type": "string"
                        },
                        {
                            "internalType": "address payable",
                            "name": "manufacturerAddress",
                            "type": "address"
                        },
                        {
                            "internalType": "string",
                            "name": "manufacturedDate",
                            "type": "string"
                        },
                        {
                            "internalType": "string",
                            "name": "expireDate",
                            "type": "string"
                        },
                        {
                            "internalType": "string",
                            "name": "processingMethod",
                            "type": "string"
                        },
                        {
                            "internalType": "string",
                            "name": "packagingMaterial",
                            "type": "string"
                        },
                        {
                            "internalType": "uint256",
                            "name": "price",
                            "type": "uint256"
                        },
                        {
                            "internalType": "uint256",
                            "name": "quantity",
                            "type": "uint256"
                        },
                        {
                            "internalType": "uint256[]",
                            "name": "rawMaterialIndices",
                            "type": "uint256[]"
                        },
                        {
                            "internalType": "string",
                            "name": "imageURL",
                            "type": "string"
                        }
                    ],
                    "internalType": "struct OrganicProduct.Product[]",
                    "name": "",
                    "type": "tuple[]"
                }
            ],
            "stateMutability": "view",
            "type": "function"
        },
        {
            "inputs": [
                {
                    "internalType": "bytes32",
                    "name": "",
                    "type": "bytes32"
                },
                {
                    "internalType": "uint256",
                    "name": "",
                    "type": "uint256"
                }
            ],
            "name": "partialNameToProductIds",
            "outputs": [
                {
                    "internalType": "uint256",
                    "name": "id",
                    "type": "uint256"
                },
                {
                    "internalType": "string",
                    "name": "name",
                    "type": "string"
                },
                {
                    "internalType": "address payable",
                    "name": "manufacturerAddress",
                    "type": "address"
                },
                {
                    "internalType": "string",
                    "name": "manufacturedDate",
                    "type": "string"
                },
                {
                    "internalType": "string",
                    "name": "expireDate",
                    "type": "string"
                },
                {
                    "internalType": "string",
                    "name": "processingMethod",
                    "type": "string"
                },
                {
                    "internalType": "string",
                    "name": "packagingMaterial",
                    "type": "string"
                },
                {
                    "internalType": "uint256",
                    "name": "price",
                    "type": "uint256"
                },
                {
                    "internalType": "uint256",
                    "name": "quantity",
                    "type": "uint256"
                },
                {
                    "internalType": "string",
                    "name": "imageURL",
                    "type": "string"
                }
            ],
            "stateMutability": "view",
            "type": "function"
        },
        {
            "inputs": [],
            "name": "productCounter",
            "outputs": [
                {
                    "internalType": "uint256",
                    "name": "",
                    "type": "uint256"
                }
            ],
            "stateMutability": "view",
            "type": "function"
        },
        {
            "inputs": [
                {
                    "internalType": "uint256",
                    "name": "_rawMaterialIndex",
                    "type": "uint256"
                },
                {
                    "internalType": "uint256",
                    "name": "_quantity",
                    "type": "uint256"
                }
            ],
            "name": "purchaseRawMaterial",
            "outputs": [],
            "stateMutability": "payable",
            "type": "function"
        },
        {
            "inputs": [],
            "name": "purchasedRawMaterial",
            "outputs": [
                {
                    "components": [
                        {
                            "internalType": "uint256",
                            "name": "id",
                            "type": "uint256"
                        },
                        {
                            "internalType": "string",
                            "name": "name",
                            "type": "string"
                        },
                        {
                            "internalType": "address payable",
                            "name": "farmerAddress",
                            "type": "address"
                        },
                        {
                            "internalType": "string",
                            "name": "location",
                            "type": "string"
                        },
                        {
                            "internalType": "string",
                            "name": "cultivationPratices",
                            "type": "string"
                        },
                        {
                            "internalType": "string",
                            "name": "pesticides",
                            "type": "string"
                        },
                        {
                            "internalType": "string",
                            "name": "producedDate",
                            "type": "string"
                        },
                        {
                            "internalType": "uint256",
                            "name": "shelfLife",
                            "type": "uint256"
                        },
                        {
                            "internalType": "uint256",
                            "name": "price",
                            "type": "uint256"
                        },
                        {
                            "internalType": "uint256",
                            "name": "quantity",
                            "type": "uint256"
                        },
                        {
                            "internalType": "string",
                            "name": "imageURL",
                            "type": "string"
                        }
                    ],
                    "internalType": "struct OrganicProduct.RawMaterial[]",
                    "name": "",
                    "type": "tuple[]"
                }
            ],
            "stateMutability": "view",
            "type": "function"
        },
        {
            "inputs": [],
            "name": "rawMaterialCounter",
            "outputs": [
                {
                    "internalType": "uint256",
                    "name": "",
                    "type": "uint256"
                }
            ],
            "stateMutability": "view",
            "type": "function"
        },
        {
            "inputs": [
                {
                    "internalType": "string",
                    "name": "_name",
                    "type": "string"
                }
            ],
            "name": "registerConsumer",
            "outputs": [],
            "stateMutability": "nonpayable",
            "type": "function"
        },
        {
            "inputs": [
                {
                    "internalType": "string",
                    "name": "_name",
                    "type": "string"
                },
                {
                    "internalType": "string",
                    "name": "_address",
                    "type": "string"
                }
            ],
            "name": "registerFarmer",
            "outputs": [],
            "stateMutability": "nonpayable",
            "type": "function"
        },
        {
            "inputs": [
                {
                    "internalType": "string",
                    "name": "_name",
                    "type": "string"
                },
                {
                    "internalType": "string",
                    "name": "_industry",
                    "type": "string"
                }
            ],
            "name": "registerManufacturer",
            "outputs": [],
            "stateMutability": "nonpayable",
            "type": "function"
        },
        {
            "inputs": [
                {
                    "internalType": "string",
                    "name": "_partialName",
                    "type": "string"
                }
            ],
            "name": "searchProducts",
            "outputs": [
                {
                    "components": [
                        {
                            "internalType": "uint256",
                            "name": "id",
                            "type": "uint256"
                        },
                        {
                            "internalType": "string",
                            "name": "name",
                            "type": "string"
                        },
                        {
                            "internalType": "address payable",
                            "name": "manufacturerAddress",
                            "type": "address"
                        },
                        {
                            "internalType": "string",
                            "name": "manufacturedDate",
                            "type": "string"
                        },
                        {
                            "internalType": "string",
                            "name": "expireDate",
                            "type": "string"
                        },
                        {
                            "internalType": "string",
                            "name": "processingMethod",
                            "type": "string"
                        },
                        {
                            "internalType": "string",
                            "name": "packagingMaterial",
                            "type": "string"
                        },
                        {
                            "internalType": "uint256",
                            "name": "price",
                            "type": "uint256"
                        },
                        {
                            "internalType": "uint256",
                            "name": "quantity",
                            "type": "uint256"
                        },
                        {
                            "internalType": "uint256[]",
                            "name": "rawMaterialIndices",
                            "type": "uint256[]"
                        },
                        {
                            "internalType": "string",
                            "name": "imageURL",
                            "type": "string"
                        }
                    ],
                    "internalType": "struct OrganicProduct.Product[]",
                    "name": "",
                    "type": "tuple[]"
                }
            ],
            "stateMutability": "view",
            "type": "function"
        },
        {
            "inputs": [],
            "name": "viewAllProducts",
            "outputs": [
                {
                    "components": [
                        {
                            "internalType": "uint256",
                            "name": "id",
                            "type": "uint256"
                        },
                        {
                            "internalType": "string",
                            "name": "name",
                            "type": "string"
                        },
                        {
                            "internalType": "address payable",
                            "name": "manufacturerAddress",
                            "type": "address"
                        },
                        {
                            "internalType": "string",
                            "name": "manufacturedDate",
                            "type": "string"
                        },
                        {
                            "internalType": "string",
                            "name": "expireDate",
                            "type": "string"
                        },
                        {
                            "internalType": "string",
                            "name": "processingMethod",
                            "type": "string"
                        },
                        {
                            "internalType": "string",
                            "name": "packagingMaterial",
                            "type": "string"
                        },
                        {
                            "internalType": "uint256",
                            "name": "price",
                            "type": "uint256"
                        },
                        {
                            "internalType": "uint256",
                            "name": "quantity",
                            "type": "uint256"
                        },
                        {
                            "internalType": "uint256[]",
                            "name": "rawMaterialIndices",
                            "type": "uint256[]"
                        },
                        {
                            "internalType": "string",
                            "name": "imageURL",
                            "type": "string"
                        }
                    ],
                    "internalType": "struct OrganicProduct.Product[]",
                    "name": "",
                    "type": "tuple[]"
                }
            ],
            "stateMutability": "view",
            "type": "function"
        },
        {
            "inputs": [],
            "name": "viewAllRawMaterials",
            "outputs": [
                {
                    "components": [
                        {
                            "internalType": "uint256",
                            "name": "id",
                            "type": "uint256"
                        },
                        {
                            "internalType": "string",
                            "name": "name",
                            "type": "string"
                        },
                        {
                            "internalType": "address payable",
                            "name": "farmerAddress",
                            "type": "address"
                        },
                        {
                            "internalType": "string",
                            "name": "location",
                            "type": "string"
                        },
                        {
                            "internalType": "string",
                            "name": "cultivationPratices",
                            "type": "string"
                        },
                        {
                            "internalType": "string",
                            "name": "pesticides",
                            "type": "string"
                        },
                        {
                            "internalType": "string",
                            "name": "producedDate",
                            "type": "string"
                        },
                        {
                            "internalType": "uint256",
                            "name": "shelfLife",
                            "type": "uint256"
                        },
                        {
                            "internalType": "uint256",
                            "name": "price",
                            "type": "uint256"
                        },
                        {
                            "internalType": "uint256",
                            "name": "quantity",
                            "type": "uint256"
                        },
                        {
                            "internalType": "string",
                            "name": "imageURL",
                            "type": "string"
                        }
                    ],
                    "internalType": "struct OrganicProduct.RawMaterial[]",
                    "name": "",
                    "type": "tuple[]"
                }
            ],
            "stateMutability": "view",
            "type": "function"
        },
        {
            "inputs": [],
            "name": "viewFarmerRawMaterials",
            "outputs": [
                {
                    "components": [
                        {
                            "internalType": "uint256",
                            "name": "id",
                            "type": "uint256"
                        },
                        {
                            "internalType": "string",
                            "name": "name",
                            "type": "string"
                        },
                        {
                            "internalType": "address payable",
                            "name": "farmerAddress",
                            "type": "address"
                        },
                        {
                            "internalType": "string",
                            "name": "location",
                            "type": "string"
                        },
                        {
                            "internalType": "string",
                            "name": "cultivationPratices",
                            "type": "string"
                        },
                        {
                            "internalType": "string",
                            "name": "pesticides",
                            "type": "string"
                        },
                        {
                            "internalType": "string",
                            "name": "producedDate",
                            "type": "string"
                        },
                        {
                            "internalType": "uint256",
                            "name": "shelfLife",
                            "type": "uint256"
                        },
                        {
                            "internalType": "uint256",
                            "name": "price",
                            "type": "uint256"
                        },
                        {
                            "internalType": "uint256",
                            "name": "quantity",
                            "type": "uint256"
                        },
                        {
                            "internalType": "string",
                            "name": "imageURL",
                            "type": "string"
                        }
                    ],
                    "internalType": "struct OrganicProduct.RawMaterial[]",
                    "name": "",
                    "type": "tuple[]"
                }
            ],
            "stateMutability": "view",
            "type": "function"
        }
    ],
    "bytecode": "0x608060405234801561001057600080fd5b50600080546001600160a01b031916331781556001819055600255615695806200003b6000396000f3fe60806040526004361061019c5760003560e01c80635b1389af116100ec578063bed34bba1161008a578063cfaaef5611610064578063cfaaef56146104e3578063da7cb39f14610503578063f851a44014610519578063ff61a8ad1461055157600080fd5b8063bed34bba1461047e578063c0666bfd146104ae578063c1538f99146104c357600080fd5b80636b5eb09c116100c65780636b5eb09c146103ef5780636dc0947e1461041e5780637055bd8d1461043e578063b579dd7e1461045e57600080fd5b80635b1389af146103645780635fe2b9ce146103865780636813b53b146103bc57600080fd5b806330b15caa11610159578063401b216811610133578063401b2168146102df57806346d6d3811461030f5780634c59dca51461032f57806355bd36101461034457600080fd5b806330b15caa14610268578063314596b2146102885780633f022f17146102a857600080fd5b80630bf53668146101a1578063174aa946146101d85780631e2d3020146101fa5780631f16653b1461020f578063224a4587146102335780632f63fd0814610253575b600080fd5b3480156101ad57600080fd5b506101c16101bc36600461480d565b610571565b6040516101cf92919061487f565b60405180910390f35b3480156101e457600080fd5b506101ed610618565b6040516101cf91906148a3565b61020d6102083660046149e0565b610a2e565b005b34801561021b57600080fd5b5061022560025481565b6040519081526020016101cf565b34801561023f57600080fd5b5061020d61024e366004614ab9565b6110c2565b34801561025f57600080fd5b506101ed611416565b34801561027457600080fd5b5061020d610283366004614bcd565b611823565b34801561029457600080fd5b5061020d6102a3366004614bcd565b611915565b3480156102b457600080fd5b506102c86102c3366004614c31565b611a2c565b6040516101cf9b9a99989796959493929190614c4a565b3480156102eb57600080fd5b506102ff6102fa36600461480d565b611dd1565b6040516101cf9493929190614cfe565b34801561031b57600080fd5b506102c861032a366004614d46565b611f1b565b34801561033b57600080fd5b506101ed611f61565b34801561035057600080fd5b5061020d61035f366004614d70565b612363565b34801561037057600080fd5b5061037961243b565b6040516101cf9190614de8565b34801561039257600080fd5b506103a66103a1366004614d46565b61288b565b6040516101cf9a99989796959493929190614f28565b3480156103c857600080fd5b506103dc6103d7366004614c31565b612c3b565b6040516101cf9796959493929190614fd4565b3480156103fb57600080fd5b5061040f61040a36600461480d565b612efa565b6040516101cf9392919061504c565b34801561042a57600080fd5b50610379610439366004614d70565b61302f565b34801561044a57600080fd5b506101ed610459366004614c31565b61349e565b34801561046a57600080fd5b5061020d610479366004615104565b613a63565b34801561048a57600080fd5b5061049e610499366004614bcd565b613fc4565b60405190151581526020016101cf565b3480156104ba57600080fd5b5061037961401e565b3480156104cf57600080fd5b506103a66104de3660046149e0565b614479565b3480156104ef57600080fd5b506103a66104fe366004614c31565b614495565b34801561050f57600080fd5b5061022560015481565b34801561052557600080fd5b50600054610539906001600160a01b031681565b6040516001600160a01b0390911681526020016101cf565b34801561055d57600080fd5b506102c861056c366004614d46565b6144ca565b600a6020526000908152604090208054819061058c90615216565b80601f01602080910402602001604051908101604052809291908181526020018280546105b890615216565b80156106055780601f106105da57610100808354040283529160200191610605565b820191906000526020600020905b8154815290600101906020018083116105e857829003601f168201915b5050506001909301549192505060ff1682565b336000908152600860209081526040808320805482518185028101850190935280835260609492939192909184015b82821015610a2557838290600052602060002090600b0201604051806101600160405290816000820154815260200160018201805461068590615216565b80601f01602080910402602001604051908101604052809291908181526020018280546106b190615216565b80156106fe5780601f106106d3576101008083540402835291602001916106fe565b820191906000526020600020905b8154815290600101906020018083116106e157829003601f168201915b505050918352505060028201546001600160a01b0316602082015260038201805460409092019161072e90615216565b80601f016020809104026020016040519081016040528092919081815260200182805461075a90615216565b80156107a75780601f1061077c576101008083540402835291602001916107a7565b820191906000526020600020905b81548152906001019060200180831161078a57829003601f168201915b505050505081526020016004820180546107c090615216565b80601f01602080910402602001604051908101604052809291908181526020018280546107ec90615216565b80156108395780601f1061080e57610100808354040283529160200191610839565b820191906000526020600020905b81548152906001019060200180831161081c57829003601f168201915b5050505050815260200160058201805461085290615216565b80601f016020809104026020016040519081016040528092919081815260200182805461087e90615216565b80156108cb5780601f106108a0576101008083540402835291602001916108cb565b820191906000526020600020905b8154815290600101906020018083116108ae57829003601f168201915b505050505081526020016006820180546108e490615216565b80601f016020809104026020016040519081016040528092919081815260200182805461091090615216565b801561095d5780601f106109325761010080835404028352916020019161095d565b820191906000526020600020905b81548152906001019060200180831161094057829003601f168201915b50505050508152602001600782015481526020016008820154815260200160098201548152602001600a8201805461099490615216565b80601f01602080910402602001604051908101604052809291908181526020018280546109c090615216565b8015610a0d5780601f106109e257610100808354040283529160200191610a0d565b820191906000526020600020905b8154815290600101906020018083116109f057829003601f168201915b50505050508152505081526020019060010190610647565b50505050905090565b3360009081526006602052604090206002015460ff16610a695760405162461bcd60e51b8152600401610a6090615250565b60405180910390fd5b60005b6003548110156110bd578260038281548110610a8a57610a8a6152a1565b90600052602060002090600b020160000154036110ab57600060038481548110610ab657610ab66152a1565b90600052602060002090600b020190508060090154831115610b1a5760405162461bcd60e51b815260206004820152601f60248201527f5175616e746974792067726561746572207468616e20617661696c61626c65006044820152606401610a60565b6000838260080154610b2c91906152cd565b905080341015610b965760405162461bcd60e51b815260206004820152602f60248201527f496e73756666696369656e742066756e647320746f207075726368617365207460448201526e1a19481c985dc81b585d195c9a585b608a1b6064820152608401610a60565b60028201546040516001600160a01b039091169082156108fc029083906000818181858888f19350505050158015610bd2573d6000803e3d6000fd5b5083826009016000828254610be791906152e4565b90915550506009820154600003610c0157610c01856144e6565b6000604051806101600160405280878152602001846001018054610c2490615216565b80601f0160208091040260200160405190810160405280929190818152602001828054610c5090615216565b8015610c9d5780601f10610c7257610100808354040283529160200191610c9d565b820191906000526020600020905b815481529060010190602001808311610c8057829003601f168201915b505050918352505060028501546001600160a01b03166020820152600385018054604090920191610ccd90615216565b80601f0160208091040260200160405190810160405280929190818152602001828054610cf990615216565b8015610d465780601f10610d1b57610100808354040283529160200191610d46565b820191906000526020600020905b815481529060010190602001808311610d2957829003601f168201915b50505050508152602001846004018054610d5f90615216565b80601f0160208091040260200160405190810160405280929190818152602001828054610d8b90615216565b8015610dd85780601f10610dad57610100808354040283529160200191610dd8565b820191906000526020600020905b815481529060010190602001808311610dbb57829003601f168201915b50505050508152602001846005018054610df190615216565b80601f0160208091040260200160405190810160405280929190818152602001828054610e1d90615216565b8015610e6a5780601f10610e3f57610100808354040283529160200191610e6a565b820191906000526020600020905b815481529060010190602001808311610e4d57829003601f168201915b50505050508152602001846006018054610e8390615216565b80601f0160208091040260200160405190810160405280929190818152602001828054610eaf90615216565b8015610efc5780601f10610ed157610100808354040283529160200191610efc565b820191906000526020600020905b815481529060010190602001808311610edf57829003601f168201915b50505050508152602001846007015481526020018460080154815260200186815260200184600a018054610f2f90615216565b80601f0160208091040260200160405190810160405280929190818152602001828054610f5b90615216565b8015610fa85780601f10610f7d57610100808354040283529160200191610fa8565b820191906000526020600020905b815481529060010190602001808311610f8b57829003601f168201915b5050509190925250503360009081526007602090815260408220805460018181018355918452928290208451600b9094020192835590830151929350839290820190610ff49082615345565b5060408201516002820180546001600160a01b0319166001600160a01b039092169190911790556060820151600382019061102f9082615345565b50608082015160048201906110449082615345565b5060a082015160058201906110599082615345565b5060c0820151600682019061106e9082615345565b5060e0820151600782015561010082015160088201556101208201516009820155610140820151600a8201906110a49082615345565b5050505050505b806110b581615405565b915050610a6c565b505050565b3360009081526005602052604090206003015460ff1661113a5760405162461bcd60e51b815260206004820152602d60248201527f4f6e6c792072656769737465726564206661726d6572732063616e206164642060448201526c726177206d6174657269616c7360981b6064820152608401610a60565b604080516101608101825260018054825260208083018d815233848601819052606085018e9052608085018d905260a085018c905260c085018b905260e085018a905261010085018990526101208501889052610140850187905260009081526008835294852080548085018255908652919094208351600b9092020190815592519192839290918201906111cf9082615345565b5060408201516002820180546001600160a01b0319166001600160a01b039092169190911790556060820151600382019061120a9082615345565b506080820151600482019061121f9082615345565b5060a082015160058201906112349082615345565b5060c082015160068201906112499082615345565b5060e0820151600782015561010082015160088201556101208201516009820155610140820151600a82019061127f9082615345565b5050600380546001810182556000919091528251600b9091027fc2575a0e9e593c00f959f8c92f12db2869c3395a3b0502d05e2516446f71f85b810191825560208401518493507fc2575a0e9e593c00f959f8c92f12db2869c3395a3b0502d05e2516446f71f85c909101906112f59082615345565b5060408201516002820180546001600160a01b0319166001600160a01b03909216919091179055606082015160038201906113309082615345565b50608082015160048201906113459082615345565b5060a0820151600582019061135a9082615345565b5060c0820151600682019061136f9082615345565b5060e0820151600782015561010082015160088201556101208201516009820155610140820151600a8201906113a59082615345565b50506001546040513392507ff52822d98590aa52017b594d44d1e6d668711d42ca11bba76db9e0c93df1653a916113ed918e908e908e908e908e908e908e908e908e9061541e565b60405180910390a26001805490600061140583615405565b919050555050505050505050505050565b336000908152600760209081526040808320805482518185028101850190935280835260609492939192909184015b82821015610a2557838290600052602060002090600b0201604051806101600160405290816000820154815260200160018201805461148390615216565b80601f01602080910402602001604051908101604052809291908181526020018280546114af90615216565b80156114fc5780601f106114d1576101008083540402835291602001916114fc565b820191906000526020600020905b8154815290600101906020018083116114df57829003601f168201915b505050918352505060028201546001600160a01b0316602082015260038201805460409092019161152c90615216565b80601f016020809104026020016040519081016040528092919081815260200182805461155890615216565b80156115a55780601f1061157a576101008083540402835291602001916115a5565b820191906000526020600020905b81548152906001019060200180831161158857829003601f168201915b505050505081526020016004820180546115be90615216565b80601f01602080910402602001604051908101604052809291908181526020018280546115ea90615216565b80156116375780601f1061160c57610100808354040283529160200191611637565b820191906000526020600020905b81548152906001019060200180831161161a57829003601f168201915b5050505050815260200160058201805461165090615216565b80601f016020809104026020016040519081016040528092919081815260200182805461167c90615216565b80156116c95780601f1061169e576101008083540402835291602001916116c9565b820191906000526020600020905b8154815290600101906020018083116116ac57829003601f168201915b505050505081526020016006820180546116e290615216565b80601f016020809104026020016040519081016040528092919081815260200182805461170e90615216565b801561175b5780601f106117305761010080835404028352916020019161175b565b820191906000526020600020905b81548152906001019060200180831161173e57829003601f168201915b50505050508152602001600782015481526020016008820154815260200160098201548152602001600a8201805461179290615216565b80601f01602080910402602001604051908101604052809291908181526020018280546117be90615216565b801561180b5780601f106117e05761010080835404028352916020019161180b565b820191906000526020600020905b8154815290600101906020018083116117ee57829003601f168201915b50505050508152505081526020019060010190611445565b3360009081526006602052604090206002015460ff16156118565760405162461bcd60e51b8152600401610a60906154b0565b6040805160608101825283815260208082018490526001828401523360009081526006909152919091208151819061188e9082615345565b50602082015160018201906118a39082615345565b506040918201516002918201805491151560ff1992831617905533600081815260066020528490209092018054909116600117905590517f0404b4c331fa7343824d265ca4ab3d731047810f3942b355247ae2c56511f3ce9061190990859085906154e7565b60405180910390a25050565b3360009081526005602052604090206003015460ff16156119485760405162461bcd60e51b8152600401610a60906154b0565b604080516080810182528381523360208083018290528284018590526001606084015260009182526005905291909120815181906119869082615345565b5060208201516001820180546001600160a01b0319166001600160a01b03909216919091179055604082015160028201906119c19082615345565b50606091909101516003918201805491151560ff199283161790553360008181526005602052604090819020909301805490921660011790915590517f851322da2e414e9965ce5ecef6890861b23f27fe84bd9646b7de8aea70efcb569061190990859085906154e7565b60038181548110611a3c57600080fd5b60009182526020909120600b90910201805460018201805491935090611a6190615216565b80601f0160208091040260200160405190810160405280929190818152602001828054611a8d90615216565b8015611ada5780601f10611aaf57610100808354040283529160200191611ada565b820191906000526020600020905b815481529060010190602001808311611abd57829003601f168201915b505050600284015460038501805494956001600160a01b03909216949193509150611b0490615216565b80601f0160208091040260200160405190810160405280929190818152602001828054611b3090615216565b8015611b7d5780601f10611b5257610100808354040283529160200191611b7d565b820191906000526020600020905b815481529060010190602001808311611b6057829003601f168201915b505050505090806004018054611b9290615216565b80601f0160208091040260200160405190810160405280929190818152602001828054611bbe90615216565b8015611c0b5780601f10611be057610100808354040283529160200191611c0b565b820191906000526020600020905b815481529060010190602001808311611bee57829003601f168201915b505050505090806005018054611c2090615216565b80601f0160208091040260200160405190810160405280929190818152602001828054611c4c90615216565b8015611c995780601f10611c6e57610100808354040283529160200191611c99565b820191906000526020600020905b815481529060010190602001808311611c7c57829003601f168201915b505050505090806006018054611cae90615216565b80601f0160208091040260200160405190810160405280929190818152602001828054611cda90615216565b8015611d275780601f10611cfc57610100808354040283529160200191611d27565b820191906000526020600020905b815481529060010190602001808311611d0a57829003601f168201915b50505050509080600701549080600801549080600901549080600a018054611d4e90615216565b80601f0160208091040260200160405190810160405280929190818152602001828054611d7a90615216565b8015611dc75780601f10611d9c57610100808354040283529160200191611dc7565b820191906000526020600020905b815481529060010190602001808311611daa57829003601f168201915b505050505090508b565b600560205260009081526040902080548190611dec90615216565b80601f0160208091040260200160405190810160405280929190818152602001828054611e1890615216565b8015611e655780601f10611e3a57610100808354040283529160200191611e65565b820191906000526020600020905b815481529060010190602001808311611e4857829003601f168201915b505050600184015460028501805494956001600160a01b03909216949193509150611e8f90615216565b80601f0160208091040260200160405190810160405280929190818152602001828054611ebb90615216565b8015611f085780601f10611edd57610100808354040283529160200191611f08565b820191906000526020600020905b815481529060010190602001808311611eeb57829003601f168201915b5050506003909301549192505060ff1684565b60086020528160005260406000208181548110611f3757600080fd5b90600052602060002090600b020160009150915050806000015490806001018054611a6190615216565b60606003805480602002602001604051908101604052809291908181526020016000905b82821015610a2557838290600052602060002090600b02016040518061016001604052908160008201548152602001600182018054611fc390615216565b80601f0160208091040260200160405190810160405280929190818152602001828054611fef90615216565b801561203c5780601f106120115761010080835404028352916020019161203c565b820191906000526020600020905b81548152906001019060200180831161201f57829003601f168201915b505050918352505060028201546001600160a01b0316602082015260038201805460409092019161206c90615216565b80601f016020809104026020016040519081016040528092919081815260200182805461209890615216565b80156120e55780601f106120ba576101008083540402835291602001916120e5565b820191906000526020600020905b8154815290600101906020018083116120c857829003601f168201915b505050505081526020016004820180546120fe90615216565b80601f016020809104026020016040519081016040528092919081815260200182805461212a90615216565b80156121775780601f1061214c57610100808354040283529160200191612177565b820191906000526020600020905b81548152906001019060200180831161215a57829003601f168201915b5050505050815260200160058201805461219090615216565b80601f01602080910402602001604051908101604052809291908181526020018280546121bc90615216565b80156122095780601f106121de57610100808354040283529160200191612209565b820191906000526020600020905b8154815290600101906020018083116121ec57829003601f168201915b5050505050815260200160068201805461222290615216565b80601f016020809104026020016040519081016040528092919081815260200182805461224e90615216565b801561229b5780601f106122705761010080835404028352916020019161229b565b820191906000526020600020905b81548152906001019060200180831161227e57829003601f168201915b50505050508152602001600782015481526020016008820154815260200160098201548152602001600a820180546122d290615216565b80601f01602080910402602001604051908101604052809291908181526020018280546122fe90615216565b801561234b5780601f106123205761010080835404028352916020019161234b565b820191906000526020600020905b81548152906001019060200180831161232e57829003601f168201915b50505050508152505081526020019060010190611f85565b336000908152600a602052604090206001015460ff16156123965760405162461bcd60e51b8152600401610a60906154b0565b6040805180820182528281526001602080830191909152336000908152600a90915291909120815181906123ca9082615345565b506020918201516001918201805491151560ff19928316179055336000818152600a90945260409384902083018054909216909217905590517f397fc7b52fe34f12198884b039c9d92048fb1761bceb5879742a789ab7389edd90612430908490615515565b60405180910390a250565b60606004805480602002602001604051908101604052809291908181526020016000905b82821015610a2557838290600052602060002090600b0201604051806101600160405290816000820154815260200160018201805461249d90615216565b80601f01602080910402602001604051908101604052809291908181526020018280546124c990615216565b80156125165780601f106124eb57610100808354040283529160200191612516565b820191906000526020600020905b8154815290600101906020018083116124f957829003601f168201915b505050918352505060028201546001600160a01b0316602082015260038201805460409092019161254690615216565b80601f016020809104026020016040519081016040528092919081815260200182805461257290615216565b80156125bf5780601f10612594576101008083540402835291602001916125bf565b820191906000526020600020905b8154815290600101906020018083116125a257829003601f168201915b505050505081526020016004820180546125d890615216565b80601f016020809104026020016040519081016040528092919081815260200182805461260490615216565b80156126515780601f1061262657610100808354040283529160200191612651565b820191906000526020600020905b81548152906001019060200180831161263457829003601f168201915b5050505050815260200160058201805461266a90615216565b80601f016020809104026020016040519081016040528092919081815260200182805461269690615216565b80156126e35780601f106126b8576101008083540402835291602001916126e3565b820191906000526020600020905b8154815290600101906020018083116126c657829003601f168201915b505050505081526020016006820180546126fc90615216565b80601f016020809104026020016040519081016040528092919081815260200182805461272890615216565b80156127755780601f1061274a57610100808354040283529160200191612775565b820191906000526020600020905b81548152906001019060200180831161275857829003601f168201915b505050505081526020016007820154815260200160088201548152602001600982018054806020026020016040519081016040528092919081815260200182805480156127e157602002820191906000526020600020905b8154815260200190600101908083116127cd575b50505050508152602001600a820180546127fa90615216565b80601f016020809104026020016040519081016040528092919081815260200182805461282690615216565b80156128735780601f1061284857610100808354040283529160200191612873565b820191906000526020600020905b81548152906001019060200180831161285657829003601f168201915b5050505050815250508152602001906001019061245f565b600960205281600052604060002081815481106128a757600080fd5b90600052602060002090600b0201600091509150508060000154908060010180546128d190615216565b80601f01602080910402602001604051908101604052809291908181526020018280546128fd90615216565b801561294a5780601f1061291f5761010080835404028352916020019161294a565b820191906000526020600020905b81548152906001019060200180831161292d57829003601f168201915b505050600284015460038501805494956001600160a01b0390921694919350915061297490615216565b80601f01602080910402602001604051908101604052809291908181526020018280546129a090615216565b80156129ed5780601f106129c2576101008083540402835291602001916129ed565b820191906000526020600020905b8154815290600101906020018083116129d057829003601f168201915b505050505090806004018054612a0290615216565b80601f0160208091040260200160405190810160405280929190818152602001828054612a2e90615216565b8015612a7b5780601f10612a5057610100808354040283529160200191612a7b565b820191906000526020600020905b815481529060010190602001808311612a5e57829003601f168201915b505050505090806005018054612a9090615216565b80601f0160208091040260200160405190810160405280929190818152602001828054612abc90615216565b8015612b095780601f10612ade57610100808354040283529160200191612b09565b820191906000526020600020905b815481529060010190602001808311612aec57829003601f168201915b505050505090806006018054612b1e90615216565b80601f0160208091040260200160405190810160405280929190818152602001828054612b4a90615216565b8015612b975780601f10612b6c57610100808354040283529160200191612b97565b820191906000526020600020905b815481529060010190602001808311612b7a57829003601f168201915b50505050509080600701549080600801549080600a018054612bb890615216565b80601f0160208091040260200160405190810160405280929190818152602001828054612be490615216565b8015612c315780601f10612c0657610100808354040283529160200191612c31565b820191906000526020600020905b815481529060010190602001808311612c1457829003601f168201915b505050505090508a565b6060806060600080600060606004805490508810612c935760405162461bcd60e51b8152602060048201526015602482015274092dcecc2d8d2c840e0e4dec8eac6e840d2dcc8caf605b1b6044820152606401610a60565b600060048981548110612ca857612ca86152a1565b90600052602060002090600b020190508060010181600301826004018360020160009054906101000a90046001600160a01b03168460070154856008015486600901868054612cf690615216565b80601f0160208091040260200160405190810160405280929190818152602001828054612d2290615216565b8015612d6f5780601f10612d4457610100808354040283529160200191612d6f565b820191906000526020600020905b815481529060010190602001808311612d5257829003601f168201915b50505050509650858054612d8290615216565b80601f0160208091040260200160405190810160405280929190818152602001828054612dae90615216565b8015612dfb5780601f10612dd057610100808354040283529160200191612dfb565b820191906000526020600020905b815481529060010190602001808311612dde57829003601f168201915b50505050509550848054612e0e90615216565b80601f0160208091040260200160405190810160405280929190818152602001828054612e3a90615216565b8015612e875780601f10612e5c57610100808354040283529160200191612e87565b820191906000526020600020905b815481529060010190602001808311612e6a57829003601f168201915b5050505050945080805480602002602001604051908101604052809291908181526020018280548015612ed957602002820191906000526020600020905b815481526020019060010190808311612ec5575b50505050509050975097509750975097509750975050919395979092949650565b600660205260009081526040902080548190612f1590615216565b80601f0160208091040260200160405190810160405280929190818152602001828054612f4190615216565b8015612f8e5780601f10612f6357610100808354040283529160200191612f8e565b820191906000526020600020905b815481529060010190602001808311612f7157829003601f168201915b505050505090806001018054612fa390615216565b80601f0160208091040260200160405190810160405280929190818152602001828054612fcf90615216565b801561301c5780601f10612ff15761010080835404028352916020019161301c565b820191906000526020600020905b815481529060010190602001808311612fff57829003601f168201915b5050506002909301549192505060ff1683565b80516020808301919091206000818152600b8352604080822080548251818702810187019093528083526060959293919290919084015b8282101561349257838290600052602060002090600b020160405180610160016040529081600082015481526020016001820180546130a490615216565b80601f01602080910402602001604051908101604052809291908181526020018280546130d090615216565b801561311d5780601f106130f25761010080835404028352916020019161311d565b820191906000526020600020905b81548152906001019060200180831161310057829003601f168201915b505050918352505060028201546001600160a01b0316602082015260038201805460409092019161314d90615216565b80601f016020809104026020016040519081016040528092919081815260200182805461317990615216565b80156131c65780601f1061319b576101008083540402835291602001916131c6565b820191906000526020600020905b8154815290600101906020018083116131a957829003601f168201915b505050505081526020016004820180546131df90615216565b80601f016020809104026020016040519081016040528092919081815260200182805461320b90615216565b80156132585780601f1061322d57610100808354040283529160200191613258565b820191906000526020600020905b81548152906001019060200180831161323b57829003601f168201915b5050505050815260200160058201805461327190615216565b80601f016020809104026020016040519081016040528092919081815260200182805461329d90615216565b80156132ea5780601f106132bf576101008083540402835291602001916132ea565b820191906000526020600020905b8154815290600101906020018083116132cd57829003601f168201915b5050505050815260200160068201805461330390615216565b80601f016020809104026020016040519081016040528092919081815260200182805461332f90615216565b801561337c5780601f106133515761010080835404028352916020019161337c565b820191906000526020600020905b81548152906001019060200180831161335f57829003601f168201915b505050505081526020016007820154815260200160088201548152602001600982018054806020026020016040519081016040528092919081815260200182805480156133e857602002820191906000526020600020905b8154815260200190600101908083116133d4575b50505050508152602001600a8201805461340190615216565b80601f016020809104026020016040519081016040528092919081815260200182805461342d90615216565b801561347a5780601f1061344f5761010080835404028352916020019161347a565b820191906000526020600020905b81548152906001019060200180831161345d57829003601f168201915b50505050508152505081526020019060010190613066565b50505050915050919050565b60045460609082106134ea5760405162461bcd60e51b8152602060048201526015602482015274092dcecc2d8d2c840e0e4dec8eac6e840d2dcc8caf605b1b6044820152606401610a60565b6000600483815481106134ff576134ff6152a1565b90600052602060002090600b020190506000816009018054905067ffffffffffffffff81111561353157613531614a02565b6040519080825280602002602001820160405280156135c857816020015b6135b5604051806101600160405280600081526020016060815260200160006001600160a01b0316815260200160608152602001606081526020016060815260200160608152602001600081526020016000815260200160008152602001606081525090565b81526020019060019003908161354f5790505b50905060005b6009830154811015613a5b5760008360090182815481106135f1576135f16152a1565b9060005260206000200154905060038054905081106136525760405162461bcd60e51b815260206004820152601a60248201527f496e76616c696420726177206d6174657269616c20696e6465780000000000006044820152606401610a60565b60038181548110613665576136656152a1565b90600052602060002090600b0201604051806101600160405290816000820154815260200160018201805461369990615216565b80601f01602080910402602001604051908101604052809291908181526020018280546136c590615216565b80156137125780601f106136e757610100808354040283529160200191613712565b820191906000526020600020905b8154815290600101906020018083116136f557829003601f168201915b505050918352505060028201546001600160a01b0316602082015260038201805460409092019161374290615216565b80601f016020809104026020016040519081016040528092919081815260200182805461376e90615216565b80156137bb5780601f10613790576101008083540402835291602001916137bb565b820191906000526020600020905b81548152906001019060200180831161379e57829003601f168201915b505050505081526020016004820180546137d490615216565b80601f016020809104026020016040519081016040528092919081815260200182805461380090615216565b801561384d5780601f106138225761010080835404028352916020019161384d565b820191906000526020600020905b81548152906001019060200180831161383057829003601f168201915b5050505050815260200160058201805461386690615216565b80601f016020809104026020016040519081016040528092919081815260200182805461389290615216565b80156138df5780601f106138b4576101008083540402835291602001916138df565b820191906000526020600020905b8154815290600101906020018083116138c257829003601f168201915b505050505081526020016006820180546138f890615216565b80601f016020809104026020016040519081016040528092919081815260200182805461392490615216565b80156139715780601f1061394657610100808354040283529160200191613971565b820191906000526020600020905b81548152906001019060200180831161395457829003601f168201915b50505050508152602001600782015481526020016008820154815260200160098201548152602001600a820180546139a890615216565b80601f01602080910402602001604051908101604052809291908181526020018280546139d490615216565b8015613a215780601f106139f657610100808354040283529160200191613a21565b820191906000526020600020905b815481529060010190602001808311613a0457829003601f168201915b505050505081525050838381518110613a3c57613a3c6152a1565b6020026020010181905250508080613a5390615405565b9150506135ce565b509392505050565b3360009081526006602052604090206002015460ff16613a955760405162461bcd60e51b8152600401610a6090615250565b8151336000908152600760205260408120909190825b8551811015613b47576000805b8354811015613b1f57878381518110613ad357613ad36152a1565b6020026020010151848281548110613aed57613aed6152a1565b90600052602060002090600b02016000015403613b0d5760019150613b1f565b80613b1781615405565b915050613ab8565b508015613b345784613b3081615405565b9550505b5080613b3f81615405565b915050613aab565b50818314613b975760405162461bcd60e51b815260206004820152601f60248201527f416c6c20526177204d6174657269616c73206e6f7420707572636861736564006044820152606401610a60565b600060405180610160016040528060025481526020018e8152602001336001600160a01b031681526020018d81526020018c81526020018b81526020018a815260200189815260200188815260200187815260200186815250905060008d8051906020012090506000600190505b8e518111613d2a576000828152600b60208181526040832080546001818101835591855293829020875194909302909201928355850151859291820190613c4c9082615345565b5060408201516002820180546001600160a01b0319166001600160a01b0390921691909117905560608201516003820190613c879082615345565b5060808201516004820190613c9c9082615345565b5060a08201516005820190613cb19082615345565b5060c08201516006820190613cc69082615345565b5060e0820151600782015561010082015160088201556101208201518051613cf8916009840191602090910190614754565b50610140820151600a820190613d0e9082615345565b50505060089190911c9080613d2281615405565b915050613c05565b50600480546001810182556000919091528251600b9091027f8a35acfbc15ff81a39ae7d344fd709f28e8600b4aa8c65c6b64bfe7fe36bd19b810191825560208401518492917f8a35acfbc15ff81a39ae7d344fd709f28e8600b4aa8c65c6b64bfe7fe36bd19c0190613d9d9082615345565b5060408201516002820180546001600160a01b0319166001600160a01b0390921691909117905560608201516003820190613dd89082615345565b5060808201516004820190613ded9082615345565b5060a08201516005820190613e029082615345565b5060c08201516006820190613e179082615345565b5060e0820151600782015561010082015160088201556101208201518051613e49916009840191602090910190614754565b50610140820151600a820190613e5f9082615345565b50503360009081526009602090815260408220805460018181018355918452928290208651600b909402019283559085015185935090820190613ea29082615345565b5060408201516002820180546001600160a01b0319166001600160a01b0390921691909117905560608201516003820190613edd9082615345565b5060808201516004820190613ef29082615345565b5060a08201516005820190613f079082615345565b5060c08201516006820190613f1c9082615345565b5060e0820151600782015561010082015160088201556101208201518051613f4e916009840191602090910190614754565b50610140820151600a820190613f649082615345565b50506002546040519081523391507f06d195a39cae44c0b031a2dc9a496102b4bd20ce2907057039213895882318589060200160405180910390a260028054906000613faf83615405565b91905055505050505050505050505050505050565b600081604051602001613fd79190615528565b6040516020818303038152906040528051906020012083604051602001613ffe9190615528565b604051602081830303815290604052805190602001201490505b92915050565b336000908152600960209081526040808320805482518185028101850190935280835260609492939192909184015b82821015610a2557838290600052602060002090600b0201604051806101600160405290816000820154815260200160018201805461408b90615216565b80601f01602080910402602001604051908101604052809291908181526020018280546140b790615216565b80156141045780601f106140d957610100808354040283529160200191614104565b820191906000526020600020905b8154815290600101906020018083116140e757829003601f168201915b505050918352505060028201546001600160a01b0316602082015260038201805460409092019161413490615216565b80601f016020809104026020016040519081016040528092919081815260200182805461416090615216565b80156141ad5780601f10614182576101008083540402835291602001916141ad565b820191906000526020600020905b81548152906001019060200180831161419057829003601f168201915b505050505081526020016004820180546141c690615216565b80601f01602080910402602001604051908101604052809291908181526020018280546141f290615216565b801561423f5780601f106142145761010080835404028352916020019161423f565b820191906000526020600020905b81548152906001019060200180831161422257829003601f168201915b5050505050815260200160058201805461425890615216565b80601f016020809104026020016040519081016040528092919081815260200182805461428490615216565b80156142d15780601f106142a6576101008083540402835291602001916142d1565b820191906000526020600020905b8154815290600101906020018083116142b457829003601f168201915b505050505081526020016006820180546142ea90615216565b80601f016020809104026020016040519081016040528092919081815260200182805461431690615216565b80156143635780601f1061433857610100808354040283529160200191614363565b820191906000526020600020905b81548152906001019060200180831161434657829003601f168201915b505050505081526020016007820154815260200160088201548152602001600982018054806020026020016040519081016040528092919081815260200182805480156143cf57602002820191906000526020600020905b8154815260200190600101908083116143bb575b50505050508152602001600a820180546143e890615216565b80601f016020809104026020016040519081016040528092919081815260200182805461441490615216565b80156144615780601f1061443657610100808354040283529160200191614461565b820191906000526020600020905b81548152906001019060200180831161444457829003601f168201915b5050505050815250508152602001906001019061404d565b600b60205281600052604060002081815481106128a757600080fd5b600481815481106144a557600080fd5b60009182526020909120600b909102018054600182018054919350906128d190615216565b60076020528160005260406000208181548110611f3757600080fd5b60035481106145375760405162461bcd60e51b815260206004820152601a60248201527f496e76616c696420726177206d6174657269616c20696e6465780000000000006044820152606401610a60565b805b600354614548906001906152e4565b8110156146a357600361455c826001615544565b8154811061456c5761456c6152a1565b90600052602060002090600b02016003828154811061458d5761458d6152a1565b600091825260209091208254600b909202019081556001808201906145b490840182615557565b5060028281015490820180546001600160a01b0319166001600160a01b039092169190911790556003808201906145ed90840182615557565b5060048181019061460090840182615557565b5060058181019061461390840182615557565b5060068181019061462690840182615557565b50600782015481600701556008820154816008015560098201548160090155600a820181600a0190816146599190615557565b5090505060038181548110614670576146706152a1565b600091825260208220600b9091020180549161468b83615632565b9190505550808061469b90615405565b915050614539565b5060038054806146b5576146b5615649565b600082815260208120600b60001990930192830201818155906146db600183018261479f565b6002820180546001600160a01b03191690556146fb60038301600061479f565b61470960048301600061479f565b61471760058301600061479f565b61472560068301600061479f565b600782016000905560088201600090556009820160009055600a8201600061474d919061479f565b5050905550565b82805482825590600052602060002090810192821561478f579160200282015b8281111561478f578251825591602001919060010190614774565b5061479b9291506147dc565b5090565b5080546147ab90615216565b6000825580601f106147bb575050565b601f0160209004906000526020600020908101906147d991906147dc565b50565b5b8082111561479b57600081556001016147dd565b80356001600160a01b038116811461480857600080fd5b919050565b60006020828403121561481f57600080fd5b614828826147f1565b9392505050565b60005b8381101561484a578181015183820152602001614832565b50506000910152565b6000815180845261486b81602086016020860161482f565b601f01601f19169290920160200192915050565b6040815260006148926040830185614853565b905082151560208301529392505050565b60006020808301818452808551808352604092508286019150828160051b87010184880160005b838110156149d257603f1989840301855281516101608151855288820151818a8701526148f982870182614853565b91505087820151614914898701826001600160a01b03169052565b506060808301518683038288015261492c8382614853565b92505050608080830151868303828801526149478382614853565b9250505060a080830151868303828801526149628382614853565b9250505060c0808301518683038288015261497d8382614853565b60e0858101519089015261010080860151908901526101208086015190890152610140948501518882039589019590955292506149be915082905083614853565b9689019694505050908601906001016148ca565b509098975050505050505050565b600080604083850312156149f357600080fd5b50508035926020909101359150565b634e487b7160e01b600052604160045260246000fd5b604051601f8201601f1916810167ffffffffffffffff81118282101715614a4157614a41614a02565b604052919050565b600082601f830112614a5a57600080fd5b813567ffffffffffffffff811115614a7457614a74614a02565b614a87601f8201601f1916602001614a18565b818152846020838601011115614a9c57600080fd5b816020850160208301376000918101602001919091529392505050565b60008060008060008060008060006101208a8c031215614ad857600080fd5b893567ffffffffffffffff80821115614af057600080fd5b614afc8d838e01614a49565b9a5060208c0135915080821115614b1257600080fd5b614b1e8d838e01614a49565b995060408c0135915080821115614b3457600080fd5b614b408d838e01614a49565b985060608c0135915080821115614b5657600080fd5b614b628d838e01614a49565b975060808c0135915080821115614b7857600080fd5b614b848d838e01614a49565b965060a08c0135955060c08c0135945060e08c013593506101008c0135915080821115614bb057600080fd5b50614bbd8c828d01614a49565b9150509295985092959850929598565b60008060408385031215614be057600080fd5b823567ffffffffffffffff80821115614bf857600080fd5b614c0486838701614a49565b93506020850135915080821115614c1a57600080fd5b50614c2785828601614a49565b9150509250929050565b600060208284031215614c4357600080fd5b5035919050565b60006101608d8352806020840152614c648184018e614853565b6001600160a01b038d16604085015283810360608501529050614c87818c614853565b90508281036080840152614c9b818b614853565b905082810360a0840152614caf818a614853565b905082810360c0840152614cc38189614853565b90508660e08401528561010084015284610120840152828103610140840152614cec8185614853565b9e9d5050505050505050505050505050565b608081526000614d116080830187614853565b6001600160a01b03861660208401528281036040840152614d328186614853565b915050821515606083015295945050505050565b60008060408385031215614d5957600080fd5b614d62836147f1565b946020939093013593505050565b600060208284031215614d8257600080fd5b813567ffffffffffffffff811115614d9957600080fd5b614da584828501614a49565b949350505050565b600081518084526020808501945080840160005b83811015614ddd57815187529582019590820190600101614dc1565b509495945050505050565b60006020808301818452808551808352604092508286019150828160051b87010184880160005b838110156149d257603f1989840301855281516101608151855288820151818a870152614e3e82870182614853565b91505087820151614e59898701826001600160a01b03169052565b5060608083015186830382880152614e718382614853565b9250505060808083015186830382880152614e8c8382614853565b9250505060a08083015186830382880152614ea78382614853565b9250505060c08083015186830382880152614ec28382614853565b9250505060e08083015181870152506101008083015181870152506101208083015186830382880152614ef58382614dad565b925050506101408083015192508582038187015250614f148183614853565b968901969450505090860190600101614e0f565b60006101408c8352806020840152614f428184018d614853565b6001600160a01b038c16604085015283810360608501529050614f65818b614853565b90508281036080840152614f79818a614853565b905082810360a0840152614f8d8189614853565b905082810360c0840152614fa18188614853565b90508560e084015284610100840152828103610120840152614fc38185614853565b9d9c50505050505050505050505050565b60e081526000614fe760e083018a614853565b8281036020840152614ff9818a614853565b9050828103604084015261500d8189614853565b6001600160a01b03881660608501526080840187905260a0840186905283810360c0850152905061503e8185614dad565b9a9950505050505050505050565b60608152600061505f6060830186614853565b82810360208401526150718186614853565b9150508215156040830152949350505050565b600082601f83011261509557600080fd5b8135602067ffffffffffffffff8211156150b1576150b1614a02565b8160051b6150c0828201614a18565b92835284810182019282810190878511156150da57600080fd5b83870192505b848310156150f9578235825291830191908301906150e0565b979650505050505050565b60008060008060008060008060006101208a8c03121561512357600080fd5b893567ffffffffffffffff8082111561513b57600080fd5b6151478d838e01614a49565b9a5060208c013591508082111561515d57600080fd5b6151698d838e01614a49565b995060408c013591508082111561517f57600080fd5b61518b8d838e01614a49565b985060608c01359150808211156151a157600080fd5b6151ad8d838e01614a49565b975060808c01359150808211156151c357600080fd5b6151cf8d838e01614a49565b965060a08c0135955060c08c0135945060e08c01359150808211156151f357600080fd5b6151ff8d838e01615084565b93506101008c0135915080821115614bb057600080fd5b600181811c9082168061522a57607f821691505b60208210810361524a57634e487b7160e01b600052602260045260246000fd5b50919050565b60208082526031908201527f4f6e6c792072656769737465726564206d616e756661637475726572732063616040820152706e206372656174652070726f647563747360781b606082015260800190565b634e487b7160e01b600052603260045260246000fd5b634e487b7160e01b600052601160045260246000fd5b8082028115828204841417614018576140186152b7565b81810381811115614018576140186152b7565b601f8211156110bd57600081815260208120601f850160051c8101602086101561531e5750805b601f850160051c820191505b8181101561533d5782815560010161532a565b505050505050565b815167ffffffffffffffff81111561535f5761535f614a02565b6153738161536d8454615216565b846152f7565b602080601f8311600181146153a857600084156153905750858301515b600019600386901b1c1916600185901b17855561533d565b600085815260208120601f198616915b828110156153d7578886015182559484019460019091019084016153b8565b50858210156153f55787850151600019600388901b60f8161c191681555b5050505050600190811b01905550565b600060018201615417576154176152b7565b5060010190565b60006101408c83528060208401526154388184018d614853565b9050828103604084015261544c818c614853565b90508281036060840152615460818b614853565b90508281036080840152615474818a614853565b905082810360a08401526154888189614853565b90508660c08401528560e084015284610100840152828103610120840152614fc38185614853565b60208082526017908201527f5573657220616c72656164792072656769737465726564000000000000000000604082015260600190565b6040815260006154fa6040830185614853565b828103602084015261550c8185614853565b95945050505050565b6020815260006148286020830184614853565b6000825161553a81846020870161482f565b9190910192915050565b80820180821115614018576140186152b7565b818103615562575050565b61556c8254615216565b67ffffffffffffffff81111561558457615584614a02565b6155928161536d8454615216565b6000601f8211600181146155c657600083156155ae5750848201545b600019600385901b1c1916600184901b17845561562b565b600085815260209020601f19841690600086815260209020845b8381101561560057828601548255600195860195909101906020016155e0565b508583101561561e5781850154600019600388901b60f8161c191681555b50505060018360011b0184555b5050505050565b600081615641576156416152b7565b506000190190565b634e487b7160e01b600052603160045260246000fdfea26469706673582212200301555560b4b153e4915c1350ffb440897059e5e0e75bf24025dd1b350deeda64736f6c63430008130033",
    "linkReferences": {},
    "deployedLinkReferences": {}
}