{
    "_format": "hh-sol-artifact-1",
    "contractName": "OrganicProduct",
    "sourceName": "contracts/OrganicProduct.sol",
    "abi": [
        {
            "inputs": [],
            "stateMutability": "nonpayable",
            "type": "constructor"
        },
        {
            "anonymous": false,
            "inputs": [
                {
                    "indexed": true,
                    "internalType": "address",
                    "name": "consumer",
                    "type": "address"
                },
                {
                    "indexed": false,
                    "internalType": "string",
                    "name": "name",
                    "type": "string"
                }
            ],
            "name": "ConsumerRegistered",
            "type": "event"
        },
        {
            "anonymous": false,
            "inputs": [
                {
                    "indexed": true,
                    "internalType": "address",
                    "name": "farmer",
                    "type": "address"
                },
                {
                    "indexed": false,
                    "internalType": "string",
                    "name": "name",
                    "type": "string"
                },
                {
                    "indexed": false,
                    "internalType": "string",
                    "name": "faddress",
                    "type": "string"
                }
            ],
            "name": "FarmerRegistered",
            "type": "event"
        },
        {
            "anonymous": false,
            "inputs": [
                {
                    "indexed": true,
                    "internalType": "address",
                    "name": "manufacturer",
                    "type": "address"
                },
                {
                    "indexed": false,
                    "internalType": "string",
                    "name": "name",
                    "type": "string"
                },
                {
                    "indexed": false,
                    "internalType": "string",
                    "name": "industry",
                    "type": "string"
                }
            ],
            "name": "ManufacturerRegistered",
            "type": "event"
        },
        {
            "anonymous": false,
            "inputs": [
                {
                    "indexed": true,
                    "internalType": "address",
                    "name": "manufacturer",
                    "type": "address"
                },
                {
                    "indexed": false,
                    "internalType": "uint256",
                    "name": "id",
                    "type": "uint256"
                }
            ],
            "name": "ProductAdded",
            "type": "event"
        },
        {
            "anonymous": false,
            "inputs": [
                {
                    "indexed": true,
                    "internalType": "address",
                    "name": "farmer",
                    "type": "address"
                },
                {
                    "indexed": false,
                    "internalType": "uint256",
                    "name": "id",
                    "type": "uint256"
                },
                {
                    "indexed": false,
                    "internalType": "string",
                    "name": "name",
                    "type": "string"
                },
                {
                    "indexed": false,
                    "internalType": "string",
                    "name": "location",
                    "type": "string"
                },
                {
                    "indexed": false,
                    "internalType": "string",
                    "name": "cultivationPratices",
                    "type": "string"
                },
                {
                    "indexed": false,
                    "internalType": "string",
                    "name": "pesticides",
                    "type": "string"
                },
                {
                    "indexed": false,
                    "internalType": "string",
                    "name": "producedDate",
                    "type": "string"
                },
                {
                    "indexed": false,
                    "internalType": "uint256",
                    "name": "shelfLife",
                    "type": "uint256"
                },
                {
                    "indexed": false,
                    "internalType": "uint256",
                    "name": "price",
                    "type": "uint256"
                },
                {
                    "indexed": false,
                    "internalType": "uint256",
                    "name": "quantity",
                    "type": "uint256"
                },
                {
                    "indexed": false,
                    "internalType": "string",
                    "name": "imageURL",
                    "type": "string"
                }
            ],
            "name": "RawMaterialAdded",
            "type": "event"
        },
        {
            "inputs": [],
            "name": "admin",
            "outputs": [
                {
                    "internalType": "address",
                    "name": "",
                    "type": "address"
                }
            ],
            "stateMutability": "view",
            "type": "function"
        },
        {
            "inputs": [
                {
                    "internalType": "uint256",
                    "name": "",
                    "type": "uint256"
                }
            ],
            "name": "allProducts",
            "outputs": [
                {
                    "internalType": "uint256",
                    "name": "id",
                    "type": "uint256"
                },
                {
                    "internalType": "string",
                    "name": "name",
                    "type": "string"
                },
                {
                    "internalType": "address payable",
                    "name": "manufacturerAddress",
                    "type": "address"
                },
                {
                    "internalType": "string",
                    "name": "manufacturedDate",
                    "type": "string"
                },
                {
                    "internalType": "string",
                    "name": "expireDate",
                    "type": "string"
                },
                {
                    "internalType": "string",
                    "name": "processingMethod",
                    "type": "string"
                },
                {
                    "internalType": "string",
                    "name": "packagingMaterial",
                    "type": "string"
                },
                {
                    "internalType": "uint256",
                    "name": "price",
                    "type": "uint256"
                },
                {
                    "internalType": "uint256",
                    "name": "quantity",
                    "type": "uint256"
                },
                {
                    "internalType": "string",
                    "name": "imageURL",
                    "type": "string"
                }
            ],
            "stateMutability": "view",
            "type": "function"
        },
        {
            "inputs": [
                {
                    "internalType": "uint256",
                    "name": "",
                    "type": "uint256"
                }
            ],
            "name": "allRawMaterials",
            "outputs": [
                {
                    "internalType": "uint256",
                    "name": "id",
                    "type": "uint256"
                },
                {
                    "internalType": "string",
                    "name": "name",
                    "type": "string"
                },
                {
                    "internalType": "address payable",
                    "name": "farmerAddress",
                    "type": "address"
                },
                {
                    "internalType": "string",
                    "name": "location",
                    "type": "string"
                },
                {
                    "internalType": "string",
                    "name": "cultivationPratices",
                    "type": "string"
                },
                {
                    "internalType": "string",
                    "name": "pesticides",
                    "type": "string"
                },
                {
                    "internalType": "string",
                    "name": "producedDate",
                    "type": "string"
                },
                {
                    "internalType": "uint256",
                    "name": "shelfLife",
                    "type": "uint256"
                },
                {
                    "internalType": "uint256",
                    "name": "price",
                    "type": "uint256"
                },
                {
                    "internalType": "uint256",
                    "name": "quantity",
                    "type": "uint256"
                },
                {
                    "internalType": "string",
                    "name": "imageURL",
                    "type": "string"
                }
            ],
            "stateMutability": "view",
            "type": "function"
        },
        {
            "inputs": [
                {
                    "internalType": "string",
                    "name": "a",
                    "type": "string"
                },
                {
                    "internalType": "string",
                    "name": "b",
                    "type": "string"
                }
            ],
            "name": "compareStrings",
            "outputs": [
                {
                    "internalType": "bool",
                    "name": "",
                    "type": "bool"
                }
            ],
            "stateMutability": "pure",
            "type": "function"
        },
        {
            "inputs": [
                {
                    "internalType": "address",
                    "name": "",
                    "type": "address"
                }
            ],
            "name": "consumers",
            "outputs": [
                {
                    "internalType": "string",
                    "name": "name",
                    "type": "string"
                },
                {
                    "internalType": "bool",
                    "name": "isRegistered",
                    "type": "bool"
                }
            ],
            "stateMutability": "view",
            "type": "function"
        },
        {
            "inputs": [
                {
                    "internalType": "address",
                    "name": "",
                    "type": "address"
                },
                {
                    "internalType": "uint256",
                    "name": "",
                    "type": "uint256"
                }
            ],
            "name": "farmerRawMaterials",
            "outputs": [
                {
                    "internalType": "uint256",
                    "name": "id",
                    "type": "uint256"
                },
                {
                    "internalType": "string",
                    "name": "name",
                    "type": "string"
                },
                {
                    "internalType": "address payable",
                    "name": "farmerAddress",
                    "type": "address"
                },
                {
                    "internalType": "string",
                    "name": "location",
                    "type": "string"
                },
                {
                    "internalType": "string",
                    "name": "cultivationPratices",
                    "type": "string"
                },
                {
                    "internalType": "string",
                    "name": "pesticides",
                    "type": "string"
                },
                {
                    "internalType": "string",
                    "name": "producedDate",
                    "type": "string"
                },
                {
                    "internalType": "uint256",
                    "name": "shelfLife",
                    "type": "uint256"
                },
                {
                    "internalType": "uint256",
                    "name": "price",
                    "type": "uint256"
                },
                {
                    "internalType": "uint256",
                    "name": "quantity",
                    "type": "uint256"
                },
                {
                    "internalType": "string",
                    "name": "imageURL",
                    "type": "string"
                }
            ],
            "stateMutability": "view",
            "type": "function"
        },
        {
            "inputs": [
                {
                    "internalType": "address",
                    "name": "",
                    "type": "address"
                }
            ],
            "name": "farmers",
            "outputs": [
                {
                    "internalType": "string",
                    "name": "name",
                    "type": "string"
                },
                {
                    "internalType": "address payable",
                    "name": "farmerAddress",
                    "type": "address"
                },
                {
                    "internalType": "string",
                    "name": "faddress",
                    "type": "string"
                },
                {
                    "internalType": "bool",
                    "name": "isRegistered",
                    "type": "bool"
                }
            ],
            "stateMutability": "view",
            "type": "function"
        },
        {
            "inputs": [
                {
                    "internalType": "address",
                    "name": "",
                    "type": "address"
                },
                {
                    "internalType": "uint256",
                    "name": "",
                    "type": "uint256"
                }
            ],
            "name": "manufacturerProducts",
            "outputs": [
                {
                    "internalType": "uint256",
                    "name": "id",
                    "type": "uint256"
                },
                {
                    "internalType": "string",
                    "name": "name",
                    "type": "string"
                },
                {
                    "internalType": "address payable",
                    "name": "manufacturerAddress",
                    "type": "address"
                },
                {
                    "internalType": "string",
                    "name": "manufacturedDate",
                    "type": "string"
                },
                {
                    "internalType": "string",
                    "name": "expireDate",
                    "type": "string"
                },
                {
                    "internalType": "string",
                    "name": "processingMethod",
                    "type": "string"
                },
                {
                    "internalType": "string",
                    "name": "packagingMaterial",
                    "type": "string"
                },
                {
                    "internalType": "uint256",
                    "name": "price",
                    "type": "uint256"
                },
                {
                    "internalType": "uint256",
                    "name": "quantity",
                    "type": "uint256"
                },
                {
                    "internalType": "string",
                    "name": "imageURL",
                    "type": "string"
                }
            ],
            "stateMutability": "view",
            "type": "function"
        },
        {
            "inputs": [
                {
                    "internalType": "address",
                    "name": "",
                    "type": "address"
                },
                {
                    "internalType": "uint256",
                    "name": "",
                    "type": "uint256"
                }
            ],
            "name": "manufacturerPurchasedRawMaterials",
            "outputs": [
                {
                    "internalType": "uint256",
                    "name": "id",
                    "type": "uint256"
                },
                {
                    "internalType": "string",
                    "name": "name",
                    "type": "string"
                },
                {
                    "internalType": "address payable",
                    "name": "farmerAddress",
                    "type": "address"
                },
                {
                    "internalType": "string",
                    "name": "location",
                    "type": "string"
                },
                {
                    "internalType": "string",
                    "name": "cultivationPratices",
                    "type": "string"
                },
                {
                    "internalType": "string",
                    "name": "pesticides",
                    "type": "string"
                },
                {
                    "internalType": "string",
                    "name": "producedDate",
                    "type": "string"
                },
                {
                    "internalType": "uint256",
                    "name": "shelfLife",
                    "type": "uint256"
                },
                {
                    "internalType": "uint256",
                    "name": "price",
                    "type": "uint256"
                },
                {
                    "internalType": "uint256",
                    "name": "quantity",
                    "type": "uint256"
                },
                {
                    "internalType": "string",
                    "name": "imageURL",
                    "type": "string"
                }
            ],
            "stateMutability": "view",
            "type": "function"
        },
        {
            "inputs": [
                {
                    "internalType": "address",
                    "name": "",
                    "type": "address"
                }
            ],
            "name": "manufacturers",
            "outputs": [
                {
                    "internalType": "string",
                    "name": "name",
                    "type": "string"
                },
                {
                    "internalType": "string",
                    "name": "industry",
                    "type": "string"
                },
                {
                    "internalType": "bool",
                    "name": "isRegistered",
                    "type": "bool"
                }
            ],
            "stateMutability": "view",
            "type": "function"
        },
        {
            "inputs": [
                {
                    "internalType": "bytes32",
                    "name": "",
                    "type": "bytes32"
                },
                {
                    "internalType": "uint256",
                    "name": "",
                    "type": "uint256"
                }
            ],
            "name": "partialNameToProductIds",
            "outputs": [
                {
                    "internalType": "uint256",
                    "name": "id",
                    "type": "uint256"
                },
                {
                    "internalType": "string",
                    "name": "name",
                    "type": "string"
                },
                {
                    "internalType": "address payable",
                    "name": "manufacturerAddress",
                    "type": "address"
                },
                {
                    "internalType": "string",
                    "name": "manufacturedDate",
                    "type": "string"
                },
                {
                    "internalType": "string",
                    "name": "expireDate",
                    "type": "string"
                },
                {
                    "internalType": "string",
                    "name": "processingMethod",
                    "type": "string"
                },
                {
                    "internalType": "string",
                    "name": "packagingMaterial",
                    "type": "string"
                },
                {
                    "internalType": "uint256",
                    "name": "price",
                    "type": "uint256"
                },
                {
                    "internalType": "uint256",
                    "name": "quantity",
                    "type": "uint256"
                },
                {
                    "internalType": "string",
                    "name": "imageURL",
                    "type": "string"
                }
            ],
            "stateMutability": "view",
            "type": "function"
        },
        {
            "inputs": [],
            "name": "productCounter",
            "outputs": [
                {
                    "internalType": "uint256",
                    "name": "",
                    "type": "uint256"
                }
            ],
            "stateMutability": "view",
            "type": "function"
        },
        {
            "inputs": [],
            "name": "rawMaterialCounter",
            "outputs": [
                {
                    "internalType": "uint256",
                    "name": "",
                    "type": "uint256"
                }
            ],
            "stateMutability": "view",
            "type": "function"
        },
        {
            "inputs": [
                {
                    "internalType": "string",
                    "name": "_name",
                    "type": "string"
                },
                {
                    "internalType": "string",
                    "name": "_address",
                    "type": "string"
                }
            ],
            "name": "registerFarmer",
            "outputs": [],
            "stateMutability": "nonpayable",
            "type": "function"
        }
    ],
    "bytecode": "0x608060405234801561001057600080fd5b50600080546001600160a01b0319163317815560018190556002556115258061003a6000396000f3fe608060405234801561001057600080fd5b50600436106100ea5760003560e01c80636b5eb09c1161008c578063cfaaef5611610066578063cfaaef5614610226578063da7cb39f14610239578063f851a44014610242578063ff61a8ad1461026d57600080fd5b80636b5eb09c146101ce578063bed34bba146101f0578063c1538f991461021357600080fd5b80633f022f17116100c85780633f022f1714610145578063401b21681461016f57806346d6d381146101925780635fe2b9ce146101a557600080fd5b80630bf53668146100ef5780631f16653b14610119578063314596b214610130575b600080fd5b6101026100fd366004610f7a565b610280565b604051610110929190610fec565b60405180910390f35b61012260025481565b604051908152602001610110565b61014361013e3660046110b3565b610327565b005b610158610153366004611117565b61047e565b6040516101109b9a99989796959493929190611130565b61018261017d366004610f7a565b610823565b60405161011094939291906111e4565b6101586101a036600461122c565b61096d565b6101b86101b336600461122c565b6109b3565b6040516101109a99989796959493929190611256565b6101e16101dc366004610f7a565b610d63565b60405161011093929190611302565b6102036101fe3660046110b3565b610e98565b6040519015158152602001610110565b6101b861022136600461133a565b610ef1565b6101b8610234366004611117565b610f0d565b61012260015481565b600054610255906001600160a01b031681565b6040516001600160a01b039091168152602001610110565b61015861027b36600461122c565b610f42565b600a6020526000908152604090208054819061029b9061135c565b80601f01602080910402602001604051908101604052809291908181526020018280546102c79061135c565b80156103145780601f106102e957610100808354040283529160200191610314565b820191906000526020600020905b8154815290600101906020018083116102f757829003601f168201915b5050506001909301549192505060ff1682565b3360009081526005602052604090206003015460ff161561038e5760405162461bcd60e51b815260206004820152601760248201527f5573657220616c72656164792072656769737465726564000000000000000000604482015260640160405180910390fd5b604080516080810182528381523360208083018290528284018590526001606084015260009182526005905291909120815181906103cc90826113e5565b5060208201516001820180546001600160a01b0319166001600160a01b039092169190911790556040820151600282019061040790826113e5565b50606091909101516003918201805491151560ff199283161790553360008181526005602052604090819020909301805490921660011790915590517f851322da2e414e9965ce5ecef6890861b23f27fe84bd9646b7de8aea70efcb569061047290859085906114a5565b60405180910390a25050565b6003818154811061048e57600080fd5b60009182526020909120600b909102018054600182018054919350906104b39061135c565b80601f01602080910402602001604051908101604052809291908181526020018280546104df9061135c565b801561052c5780601f106105015761010080835404028352916020019161052c565b820191906000526020600020905b81548152906001019060200180831161050f57829003601f168201915b505050600284015460038501805494956001600160a01b039092169491935091506105569061135c565b80601f01602080910402602001604051908101604052809291908181526020018280546105829061135c565b80156105cf5780601f106105a4576101008083540402835291602001916105cf565b820191906000526020600020905b8154815290600101906020018083116105b257829003601f168201915b5050505050908060040180546105e49061135c565b80601f01602080910402602001604051908101604052809291908181526020018280546106109061135c565b801561065d5780601f106106325761010080835404028352916020019161065d565b820191906000526020600020905b81548152906001019060200180831161064057829003601f168201915b5050505050908060050180546106729061135c565b80601f016020809104026020016040519081016040528092919081815260200182805461069e9061135c565b80156106eb5780601f106106c0576101008083540402835291602001916106eb565b820191906000526020600020905b8154815290600101906020018083116106ce57829003601f168201915b5050505050908060060180546107009061135c565b80601f016020809104026020016040519081016040528092919081815260200182805461072c9061135c565b80156107795780601f1061074e57610100808354040283529160200191610779565b820191906000526020600020905b81548152906001019060200180831161075c57829003601f168201915b50505050509080600701549080600801549080600901549080600a0180546107a09061135c565b80601f01602080910402602001604051908101604052809291908181526020018280546107cc9061135c565b80156108195780601f106107ee57610100808354040283529160200191610819565b820191906000526020600020905b8154815290600101906020018083116107fc57829003601f168201915b505050505090508b565b60056020526000908152604090208054819061083e9061135c565b80601f016020809104026020016040519081016040528092919081815260200182805461086a9061135c565b80156108b75780601f1061088c576101008083540402835291602001916108b7565b820191906000526020600020905b81548152906001019060200180831161089a57829003601f168201915b505050600184015460028501805494956001600160a01b039092169491935091506108e19061135c565b80601f016020809104026020016040519081016040528092919081815260200182805461090d9061135c565b801561095a5780601f1061092f5761010080835404028352916020019161095a565b820191906000526020600020905b81548152906001019060200180831161093d57829003601f168201915b5050506003909301549192505060ff1684565b6008602052816000526040600020818154811061098957600080fd5b90600052602060002090600b0201600091509150508060000154908060010180546104b39061135c565b600960205281600052604060002081815481106109cf57600080fd5b90600052602060002090600b0201600091509150508060000154908060010180546109f99061135c565b80601f0160208091040260200160405190810160405280929190818152602001828054610a259061135c565b8015610a725780601f10610a4757610100808354040283529160200191610a72565b820191906000526020600020905b815481529060010190602001808311610a5557829003601f168201915b505050600284015460038501805494956001600160a01b03909216949193509150610a9c9061135c565b80601f0160208091040260200160405190810160405280929190818152602001828054610ac89061135c565b8015610b155780601f10610aea57610100808354040283529160200191610b15565b820191906000526020600020905b815481529060010190602001808311610af857829003601f168201915b505050505090806004018054610b2a9061135c565b80601f0160208091040260200160405190810160405280929190818152602001828054610b569061135c565b8015610ba35780601f10610b7857610100808354040283529160200191610ba3565b820191906000526020600020905b815481529060010190602001808311610b8657829003601f168201915b505050505090806005018054610bb89061135c565b80601f0160208091040260200160405190810160405280929190818152602001828054610be49061135c565b8015610c315780601f10610c0657610100808354040283529160200191610c31565b820191906000526020600020905b815481529060010190602001808311610c1457829003601f168201915b505050505090806006018054610c469061135c565b80601f0160208091040260200160405190810160405280929190818152602001828054610c729061135c565b8015610cbf5780601f10610c9457610100808354040283529160200191610cbf565b820191906000526020600020905b815481529060010190602001808311610ca257829003601f168201915b50505050509080600701549080600801549080600a018054610ce09061135c565b80601f0160208091040260200160405190810160405280929190818152602001828054610d0c9061135c565b8015610d595780601f10610d2e57610100808354040283529160200191610d59565b820191906000526020600020905b815481529060010190602001808311610d3c57829003601f168201915b505050505090508a565b600660205260009081526040902080548190610d7e9061135c565b80601f0160208091040260200160405190810160405280929190818152602001828054610daa9061135c565b8015610df75780601f10610dcc57610100808354040283529160200191610df7565b820191906000526020600020905b815481529060010190602001808311610dda57829003601f168201915b505050505090806001018054610e0c9061135c565b80601f0160208091040260200160405190810160405280929190818152602001828054610e389061135c565b8015610e855780601f10610e5a57610100808354040283529160200191610e85565b820191906000526020600020905b815481529060010190602001808311610e6857829003601f168201915b5050506002909301549192505060ff1683565b600081604051602001610eab91906114d3565b6040516020818303038152906040528051906020012083604051602001610ed291906114d3565b6040516020818303038152906040528051906020012014905092915050565b600b60205281600052604060002081815481106109cf57600080fd5b60048181548110610f1d57600080fd5b60009182526020909120600b909102018054600182018054919350906109f99061135c565b6007602052816000526040600020818154811061098957600080fd5b80356001600160a01b0381168114610f7557600080fd5b919050565b600060208284031215610f8c57600080fd5b610f9582610f5e565b9392505050565b60005b83811015610fb7578181015183820152602001610f9f565b50506000910152565b60008151808452610fd8816020860160208601610f9c565b601f01601f19169290920160200192915050565b604081526000610fff6040830185610fc0565b905082151560208301529392505050565b634e487b7160e01b600052604160045260246000fd5b600082601f83011261103757600080fd5b813567ffffffffffffffff8082111561105257611052611010565b604051601f8301601f19908116603f0116810190828211818310171561107a5761107a611010565b8160405283815286602085880101111561109357600080fd5b836020870160208301376000602085830101528094505050505092915050565b600080604083850312156110c657600080fd5b823567ffffffffffffffff808211156110de57600080fd5b6110ea86838701611026565b9350602085013591508082111561110057600080fd5b5061110d85828601611026565b9150509250929050565b60006020828403121561112957600080fd5b5035919050565b60006101608d835280602084015261114a8184018e610fc0565b6001600160a01b038d1660408501528381036060850152905061116d818c610fc0565b90508281036080840152611181818b610fc0565b905082810360a0840152611195818a610fc0565b905082810360c08401526111a98189610fc0565b90508660e084015285610100840152846101208401528281036101408401526111d28185610fc0565b9e9d5050505050505050505050505050565b6080815260006111f76080830187610fc0565b6001600160a01b038616602084015282810360408401526112188186610fc0565b915050821515606083015295945050505050565b6000806040838503121561123f57600080fd5b61124883610f5e565b946020939093013593505050565b60006101408c83528060208401526112708184018d610fc0565b6001600160a01b038c16604085015283810360608501529050611293818b610fc0565b905082810360808401526112a7818a610fc0565b905082810360a08401526112bb8189610fc0565b905082810360c08401526112cf8188610fc0565b90508560e0840152846101008401528281036101208401526112f18185610fc0565b9d9c50505050505050505050505050565b6060815260006113156060830186610fc0565b82810360208401526113278186610fc0565b9150508215156040830152949350505050565b6000806040838503121561134d57600080fd5b50508035926020909101359150565b600181811c9082168061137057607f821691505b60208210810361139057634e487b7160e01b600052602260045260246000fd5b50919050565b601f8211156113e057600081815260208120601f850160051c810160208610156113bd5750805b601f850160051c820191505b818110156113dc578281556001016113c9565b5050505b505050565b815167ffffffffffffffff8111156113ff576113ff611010565b6114138161140d845461135c565b84611396565b602080601f83116001811461144857600084156114305750858301515b600019600386901b1c1916600185901b1785556113dc565b600085815260208120601f198616915b8281101561147757888601518255948401946001909101908401611458565b50858210156114955787850151600019600388901b60f8161c191681555b5050505050600190811b01905550565b6040815260006114b86040830185610fc0565b82810360208401526114ca8185610fc0565b95945050505050565b600082516114e5818460208701610f9c565b919091019291505056fea2646970667358221220044a0fd8f200192fa03b6349ecc0381bd77b75158572176d0e6a3c7a2bab8a2764736f6c63430008130033",
    "linkReferences": {},
    "deployedLinkReferences": {}
}